:020000040800F2
:10000000102100200D020008711D0008AD1B000822
:1000100000000000000000000000000000000000E0
:10002000000000000000000000000000731D000838
:10003000000000000000000093010008D91E000825
:100040001F020008000000001F0200081F02000835
:100050001F0200081F0200081F0200081F020008FC
:10006000000000001F0200081F0200081F02000815
:100070001F0200081F0200081F0200080000000005
:100080001F0200081F0200081F0200081F020008CC
:100090001F0200081F0200081F0200081F020008BC
:1000A0001F0200081F0200081F0200088526000822
:1000B0001F0200081F02000800F002F800F03EF8DE
:1000C0000CA030C8083824182D18A246671EAB466D
:1000D00054465D46AC4201D100F030F87E460F3EFA
:1000E0000FCCB6460126334200D0FB1AA246AB46DF
:1000F00033431847344F0000544F0000103A02D3E6
:1001000078C878C1FAD8520701D330C830C101D5B8
:1001100004680C60704700000023002400250026BE
:10012000103A01D378C1FBD8520700D330C100D5B3
:100130000B6070471FB51FBD10B510BD00F0E0FA91
:100140001146FFF7F7FF02F0E3FC00F0F8FA03B402
:10015000FFF7F2FF03BC00F0A7FA0000084B196894
:100160000868203080F30988022080F31488BFF3E8
:100170006F8F3FBCAE4608BC04BC62B61847000097
:1001800014000020EFF3108072B6704780F31088DF
:100190007047EFF309800E4B1A6820381060F0C0EA
:1001A00044464D4656465F46F0C008B572B604F068
:1001B00045F862B60CBC116808681030F0C8A0465B
:1001C000A946B246BB4680F309882038F0C81847D4
:1001D0001400002070B505460C46164602E00FCC10
:1001E0000FC5103E102EFAD2082E02D303CC03C541
:1001F000083E042E07D301CC01C5361F03E0217849
:100200002970641C6D1C761EF9D270BD07488047AA
:1002100007480047FEE7FEE7FEE7FEE7FEE7FEE7EA
:1002200004480549054A064B70470000731F000843
:10023000B9000008101B002010210020101D002014
:10024000101D0020FEB5054610460C46184373D01D
:10025000AE468C460020AD1A01469C4167D36646E7
:10026000002701243D46B61A9D4102D313463A4663
:100270002124654676462F04360C3E432D0CB61AD3
:100280009D4104D3150C1B042B4312041034654606
:1002900076462F06360A3E432D0AB61A9D4104D3F0
:1002A000150E1B022B4312020834654676462F07B3
:1002B00036093E432D09B61A9D4104D3150F1B0183
:1002C0002B431201241D65467646AF07B6083E4310
:1002D000AD08B61A9D4104D3950F9B002B439200A5
:1002E000A41C65467646EF0776083E436D08B61AAD
:1002F0009D411AD392185B41641C16E000187646A3
:1003000065464941B71A9D410191009009D3604665
:10031000B11A98418E468446009801990025401CE8
:100320006941DD0752082A435B08641EE6D5724620
:10033000634603B0F0BDFFE700200146C046C0465B
:100340002A462346F5E710B5002000F0B3F9FFF781
:10035000F3FE012000F0A8F910BD0000034670B5BF
:1003600002460B439B070FD10E4CE60100E008C28A
:1003700008C91D1B9D433542F9D0D9B21170521CDA
:1003800000290DD01B0AF8E70B78491C1370521C8A
:10039000002B05D00B78491C1370521C002BF3D195
:1003A00070BD00000101010130B5441C03E001787B
:1003B000401C00290DD08107F9D10B4BDD0104C889
:1003C000D11A91432940FAD0001B0A0603D0C01E5F
:1003D00030BD001B30BD0A0401D0801E30BD0902B3
:1003E000FCD0401E30BD000001010101F8B5042A17
:1003F0002CD3830712D00B78491C0370401C521E6B
:1004000083070BD00B78491C0370401C521E8307D6
:1004100004D00B78491C0370401C521E8B079B0FA5
:1004200005D0C91ADF002023DE1B08C90AE0FFF748
:10043000D1FEF8BD1D4608C9FD401C46B4402C4302
:1004400010C0121F042AF5D2F308C91A521EF0D4A4
:100450000B78491C0370401C521EEAD40B78491CCF
:100460000370401C012AE4D409780170F8BDD2B2AF
:1004700010B513029A1813049A1800F00EF810BD64
:1004800001E004C0091F0429FBD28B0701D50280BB
:10049000801CC90700D00270704700290BD0C30729
:1004A00002D00270401C491E022904D3830702D5E2
:1004B0000280801C891EE3E70022EEE70022DFE7CE
:1004C000024670B50A4392072AD11E4DEE0104C8B8
:1004D00008C9541B9443344017D0D0B2D9B2401A43
:1004E0002106014310D190B299B2401A2104014370
:1004F0000AD110021902000A090A401A2102014316
:1005000002D1100E190E401A70BD9A42DFD010BAF7
:1005100019BA884201D9012070BD0020C04370BDC6
:1005200002780B78401C491C002A09D09A4207D156
:1005300002780B78401C491C002A01D09A42EFD067
:10054000D01A70BD01010101002203098B422CD396
:10055000030A8B4211D300239C464EE003460B4313
:100560003CD4002243088B4231D303098B421CD375
:10057000030A8B4201D394463FE0C3098B4201D367
:10058000CB01C01A524183098B4201D38B01C01A9F
:10059000524143098B4201D34B01C01A5241030916
:1005A0008B4201D30B01C01A5241C3088B4201D3C5
:1005B000CB00C01A524183088B4201D38B00C01A72
:1005C000524143088B4201D34B00C01A5241411A99
:1005D00000D201465241104670475DE0CA0F00D07C
:1005E0004942031000D34042534000229C46030975
:1005F0008B422DD3030A8B4212D3FC22890112BAFB
:10060000030A8B420CD3890192118B4208D38901D2
:1006100092118B4204D389013AD0921100E08909EA
:10062000C3098B4201D3CB01C01A524183098B42CB
:1006300001D38B01C01A524143098B4201D34B01B4
:10064000C01A524103098B4201D30B01C01A524117
:10065000C3088B4201D3CB00C01A524183088B429E
:1006600001D38B00C01A5241D9D243088B4201D327
:100670004B00C01A5241411A00D201466346524112
:100680005B10104601D34042002B00D54942704711
:1006900063465B1000D3404201B50020C046C0460F
:1006A00002BD70477047704701491820ABBEFEE796
:1006B0002600020010B500F00BF800F002F810BDA3
:1006C000704710B5002801D0FFF7EEFF10BD000005
:1006D00010B5002102A000F03AF8012010BD000082
:1006E000534947414252543A2041626E6F726D61E4
:1006F0006C207465726D696E6174696F6E000000C4
:10070000754600F045F8AE46050069465346C008F8
:10071000C000854618B020B5FFF782FD60BC0027F9
:100720004908B6460026C0C5C0C5C0C5C0C5C0C5BD
:10073000C0C5C0C5C0C5403D49008D46704710B515
:100740000446C046C0462046FFF701FD10BD70B507
:1007500005460C460A2000E06D1C00F012F8002D42
:1007600006D028780028F7D102E0641C00F009F8D0
:10077000002C02D020780028F7D10A2000F001F8E0
:1007800070BD08B5694608700320ABBE08BD000007
:1007900000487047AC1A002072B6FEE710B5054C51
:1007A00021680968FFF78CFE002801D0002010BDE9
:1007B000206810BD9C000020F8B5002504462034B8
:1007C0000095227D012A39D00122227503689E6896
:1007D000760767D4384F4E68BE424DD09E6A0F7878
:1007E000BA4016439E620123C26A1B079A421FD079
:1007F000012A1DD0022A1BD0032A19D0042A17D09F
:10080000052A15D0062A13D0072A11D002688B6852
:1008100056697607760FB3420AD05369DB08DB00CE
:100820005361006842690B7A5B075B0F1A434261B0
:100830000A68102A04D0112A02D038E00220F8BD3C
:100840001E488368102A07D0012292051343836053
:100850000868102803D02AE00122D205F6E71948DB
:1008600017490068FFF770FE0A21484300E0401E68
:1008700000900028FBD11AE0986A0E78B2409043AD
:1008800098620968102901D0112910D10B4882689B
:10089000102904D0012189058A43826007E00121E3
:1008A000C905F9E7816B20221143816301250020EE
:1008B00020752846F8BD0000011000000027014007
:1008C00040420F0010000020F8B500260446002822
:1008D00005D0A06B25462035002802D007E0012076
:1008E000F8BD0020E0632875204600F0A9F8A06B51
:1008F0001022C006002870DB2068816849076CD48C
:10090000A16B1301994302231943A16381688907ED
:10091000890F012905D10168C9070FD1C1680904F0
:100920000CD4C16818239943A3681943C160206897
:100930000169636889008908194301612068C168F9
:100940003D4B1940C160207E617E8003C90308438E
:10095000A17E4B031843A36A012B02D001231B0382
:1009600000E000231843E36818432369022B09D0F1
:10097000002318432B79E57E5B0018430123012DEA
:1009800002D00AE00423F4E7002927D0A16B202538
:100990002943A163E16B1943E163E1690D46FF3D22
:1009A000C23D02D0256A294308432168CD6805432A
:1009B000CD600125E16A2D07A94213D0012911D08C
:1009C00002290FD003290DD004290BD0052909D005
:1009D000062907D0072905D010E028E001210904E5
:1009E0000843DAE721684D69ED08ED004D612168A3
:1009F0004D69A78D7F077F0F3D434D612168C96811
:100A00000E4D2940814207D10020E063A06B800891
:100A10008000401CA06308E0A06B022188431043C3
:100A2000A063E06B1843E06301263046F8BDA06B7D
:100A30001043A063F8E700001902FEFFE7FF3F83C1
:100A400010B586B0044614216846FFF737FD1049FB
:100A50002068884219D10F48826941150A43826192
:100A600082690A400592426909020A43426140696B
:100A7000084005900620009003200190002002907D
:100A800009206946C00600F0B5F806B010BD0000A8
:100A9000002401400010024030B5014620314B785F
:100AA0000022022B04D0042383630A70012030BD8E
:100AB00003681C680E25AC431C6003681C6864084E
:100AC00064001C600123056C1C46C06BAC40446094
:100AD0004B700A70002030BD70B5002401462031F3
:100AE0004A78022A03D004218163012416E00268B7
:100AF00013680E25AB431360026813685B085B0044
:100B000013600122056C1346AB40C56B6B604A70E5
:100B100000220A70416B002900D08847204670BD32
:100B2000F0B5002258E0012393401C460C4052D0FF
:100B300096082B4DB6007519AF68AC4695072E0F79
:100B40000F25B540AE463D400927FF06B84201D10A
:100B500000270FE0234FB84201D101270AE0224FBE
:100B6000B84201D1022705E0204FB84201D1032746
:100B700000E00527B740AF4212D11D4D2E68A643B5
:100B80002E606E68A6436E60EE68A643EE60AE68A7
:100B9000A643AE606546AD687446A5436446A5604D
:100BA000056856000324B440A5430560D508AD0090
:100BB0002D182E6AAC465507EF0E0F25BD40AE43EB
:100BC00065462E62C568A543C56045689D4345607E
:100BD0008368A3438360521C0B46D340A3D1F0BD6E
:100BE000000001400004004800080048000C0048D4
:100BF00000040140F8B5002303240125BAE02E4685
:100C00009E40B44632407CD00E79B607B60F012E16
:100C100001D0022E17D186682746B6465E00B7403F
:100C200000967646BE43B646CF68009EB7407646ED
:100C30003743876046686746BE430F79FF06FF0F5C
:100C40009F40374347600E79F643B6070ED0C6681B
:100C50002746B4465E00B646B7406646BE43B44635
:100C60008F687646B74066463743C7600E79B60749
:100C7000B60F022E14D1DE08B60036180096366A7A
:100C80005F07B446FE0E0F27B646B7406646BE4322
:100C9000B4460F697646B74066463743009E3762D2
:100CA00006682746B4465E00B646B7406646BE4371
:100CB0000F79B446BF07BF0F7646B7406646374345
:100CC00007604E68B603B60F53D02D4FBE692E4352
:100CD000BE61BE699F08F607F60F2A4EBF00BE1917
:100CE0000096B6680F27B4469E07360FB646B74043
:100CF0006646BE430927FF06B446B84202D1002724
:100D000010E036E0204FB84201D101270AE01F4F22
:100D1000B84201D1022705E01D4FB84201D1032797
:100D200000E005277646B74066463743009EB76029
:100D3000184EB6684F689643FF0200D51643154F0C
:100D4000BE60FE684F689643BF0200D51643114F40
:100D5000FE607E684F689643BF0300D516430D4F73
:100D60007E603E684F689643FF0300D51643094AEC
:100D700016605B1C0A681646DE4000D03FE7F8BDEF
:100D80000010024000000140000400480008004834
:100D9000000C0048000401400069084000D0012018
:100DA0007047002A01D0816170478162704700005E
:100DB00001488068704700000400002070B50246BA
:100DC00040325378202B1CD11378012B19D00123EA
:100DD000137024245470046825689D4325600468BA
:100DE00025681E03B5432560046825680D4325600A
:100DF00000680168194301602020507000201070C5
:100E000070BD022070BD70B5024640325378202B71
:100E10001BD11378012B18D0012414702423537094
:100E200003681D68A5431D6005682B680F26360200
:100E3000B343090219432960006801682143016036
:100E4000202050700020107070BD022070BD000086
:100E500070B5040006D02546403568780026002885
:100E600002D005E0012070BD2E70204600F04EF843
:100E700024206870206801684908490001600F213A
:100E80006068090688432168086121688A68012032
:100E9000C00382438A60E1680129A1682FD0212222
:100EA00092021143226891600121E268C902022A7C
:100EB0002268536825D08B43536021684A68124BDF
:100EC0001A434A602168CA688243CA60616920691E
:100ED0000843A169090208432168C860216AE069E2
:100EE00008432168086020680168012211430160FD
:100EF0006664202068702663AE70002070BD0143D8
:100F0000D0E70B43D8E700000080000210B586B0A0
:100F1000044614216846FFF7D1FA12492068884236
:100F20001ED1114C61690120800401436161616936
:100F300001400591C02000901220019000200290F5
:100F4000032003900120049069460848FFF752FEF1
:100F5000E169012040050143E161E169014005913A
:100F600006B010BD005400400010024000040048CC
:100F70000248816802788918816070470400002067
:100F800010B506480168102211430160032000F0EB
:100F900007F800F027F8002010BD000000200240F4
:100FA00070B504460D4D7D202978C000FFF7CCFABE
:100FB00001460B480068FFF7C7FA00F03DFB002828
:100FC00009D1042C07D200222146401E00F03EF831
:100FD00000206C6070BD012070BD00000400002086
:100FE0001000002008B50A4881690122114381617F
:100FF000816911400091C26901040A43C261C0695C
:101000000022084003210090481F00F01FF808BD8F
:1010100000100240002809DBC106C90E01208840EB
:1010200003490860BFF34F8FBFF36F8F7047000015
:1010300080E100E0002805DBC106C90E01208840E0
:10104000014908607047000000E100E010B501F0C0
:1010500047FB10BDF8B505460068354CC00352D5B6
:10106000E0690026C00007D4E16920040143E16182
:10107000E1690140012600912E480168C90510D49C
:101080000168821511430160FFF792FE074604E0F4
:10109000FFF78EFEC01B642824D826480068C005D0
:1010A000F6D5206A03273F02384020D069683940CE
:1010B00081421CD0206A226AB843012109040A43F4
:1010C0002262226A8A4322622062C0070FD0FFF7A1
:1010D0006FFE009008E0FFF76BFE0099411A16487A
:1010E000814201D90320F8BD206A8007F3D5206A28
:1010F0006968B84308432062002E04D0E1690120EA
:1011000000078143E1612878C00705D0206BA968FA
:1011100080088000084320632878800605D5206B6E
:1011200010218843E968084320630020F8BD0000CF
:10113000001002400070004088130000F8B50F4610
:10114000060059D03A4D2868C007C00FB84209D2EE
:10115000286840084000384328602868C007C00F4E
:10116000B84249D13068334C81070CD5400704D5CB
:10117000606807210902084360606068F0218843C5
:10118000B168084360603078C00726D070680128D5
:101190000ED0216802280ED0890700292CDA616858
:1011A0008908890001436160FFF702FE00900DE0AD
:1011B00021688903F1E78901EFE7FFF7F9FD00995D
:1011C000411A1D48814201D90320F8BD60680C21F5
:1011D0000840716889008842EFD12868C007C00FB5
:1011E000B8420BD928684008400038432860286876
:1011F000C007C00FB84201D00120F8BD30784007C9
:1012000006D56068072109028843F16808436060D9
:1012100000F028F86168094A0906090F515CC840C6
:10122000074908600320FFF7BBFE0020F8BD00005F
:101230000020024000100240881300000C4D0008FE
:10124000100000200448054900684968044A49051F
:10125000490F515CC8407047100000200010024048
:101260001C4D000810B50F494B680C201A4602406F
:101270000D48042A14D0082A12D19A020B4C120FDE
:10128000A45CC96A094A0907090F1032525CD903E4
:10129000890F00231946FEF7D5FF214601F0FAF920
:1012A00010BD00000010024000127A00EC4C000853
:1012B000FEB5040071D02078DC4DC00749D06868C5
:1012C0000007800F012820D068680007800F0228DF
:1012D00004D16868C003800F022816D0012062681C
:1012E0000004012A18D08100002A01D0052A17D055
:1012F0002A6882432A60286888432860606800283A
:101300001BD0FFF755FD064613E02868800320D563
:1013100060680028CED01CE0296801432960EDE711
:101320002A680A432A60F7E7FFF742FD801B64281A
:1013300070D828688003F7D50BE0FFF739FD064623
:1013400004E0FFF735FD801B6428F1D8286880038E
:10135000F7D420780126800700283EDA6868000765
:10136000800F13D068680007800F022804D16868D6
:10137000C003800F012809D0E068002828681DD02C
:1013800030432860FFF714FD07460CE0286880070B
:101390000CD5E068012800D108E043E1FFF708FD23
:1013A000C01B0228C4D828688007F7D52868F82110
:1013B00088432169C900084328600EE040084000C6
:1013C0002860FFF7F5FC074604E0FFF7F1FCC01BBF
:1013D0000228ADD828688007F7D42078000722D5E6
:1013E000E0690028686A0ED030436862FFF7E0FCCD
:1013F000074604E0FFF7DCFCC01B022898D8686AA7
:101400008007F7D50FE0400840006862FFF7D0FC86
:10141000074605E09DE0FFF7CBFCC01B022887D8FC
:10142000686A8007F7D4207804274007002860DA2C
:1014300000200190E869C00008D4E969B8060143BA
:10144000E961E96901400120009101907848016853
:10145000C90511D40168821511430160FFF7A8FC8A
:10146000009005E0FFF7A4FC0099401A642870D8AA
:101470006F480068C005F5D5A06801280AD000288B
:1014800001D0052810D0286A400840002862286A48
:10149000B84301E0286A30432862A068002812D0CF
:1014A000FFF786FC00900AE0286A38432862F1E7DB
:1014B000FFF77EFC0099411A5E48814249D8286AAC
:1014C0008007F5D50DE0FFF773FC009006E0FFF70D
:1014D0006FFC0099411A574881423AD8286A800720
:1014E000F5D40198002804D0E86901210907884350
:1014F000E8612078C00635D5606901280CD0401D10
:10150000686B23D038436863686B400840006863A9
:10151000FFF74EFC064622E0686B38436863686B51
:1015200030436863FFF744FC064604E0FFF740FCE5
:10153000801B02285BD8686B8007F7D5686BF821A1
:101540008843A169C900084368630BE0B843686336
:10155000F4E74CE0FFF72CFC801B022847D8686BAF
:101560008007F7D4206A00285ED069680907890FD0
:10157000022942D0012636060228286805D0B04349
:101580002860FFF715FC044633E0B0432860FFF7FE
:101590000FFC074604E0FFF70BFCC01B022826D80F
:1015A00028688001F7D4E86AE16A0009000108436D
:1015B000E862616AA06A084369687B22D2039143AA
:1015C00008436860286830432860FFF7F1FB044651
:1015D00004E0FFF7EDFB001B022808D82868800113
:1015E000F7D521E0FFF7E4FB001B022801D9032017
:1015F000FEBD28688001F5D416E00128F8D068689F
:10160000E96A0322D203636A02409A420AD10907B7
:10161000E26A090F914205D10F2189040840A16AAD
:10162000884201D00120FEBD0020FEBD0010024016
:101630000070004088130000094910B5401E884220
:1016400001D9012010BD074C60610321081F01F082
:1016500047F80020A06107202061002010BD000095
:10166000FFFFFF0000E000E0704770B504001BD0F2
:101670002420E0672068016849084900016020686B
:10168000002505602068456020688560204600F0E0
:10169000A5F9204680304560E567056025666566EA
:1016A00060342576002070BD012070BD094910B559
:1016B00088420DD1084844692068FFF7D6FF2068AA
:1016C00000F056F9214601221431206800F0DAF9C1
:1016D00010BD000050010020A0000020F8B50268F5
:1016E0000446D069116893689E4D06462E402546F3
:1016F0008035002E71D09C4FDE07F60F0F40374328
:101700007ED0C70706D0CF0504D5012717626A68C7
:101710003A436A60820708D5DA0706D027680222B2
:101720003A626A6804273A436A60420708D5DA07D2
:1017300006D0236804221A626A6802231A436A6088
:10174000020709D520220A40324305D02368082227
:101750001A626B6813436B60020509D54A0107D50D
:1017600001222368D2021A626B68202213436B6045
:101770006A68002A39D0800606D5880604D5A16E8D
:10178000002901D020468847686821688968490691
:1017900002D4282108422DD0204600F0BDFC21684B
:1017A0008868400622D5EFF31080012282F310886A
:1017B0008A6840239A438A6080F31088606F00280B
:1017C00014D06A494163606FFFF786F900280CD096
:1017D000606F416B08E000E012E0830610D58B06D5
:1017E0000ED5A16EA3E020468847F8BD2046FFF73E
:1017F0005DFFF8BD2046FFF759FF00206860F8BD87
:10180000236E012B7ED1C3067CD5CB067AD510235F
:10181000136222689068264640064036002848DA5F
:10182000616F086840680004000CE8D0378B87427D
:10183000E5D970838869202834D0EFF31080012126
:1018400081F3108811681F01B943116080F310887B
:10185000EFF31080012181F3108821688A68520813
:1018600052008A6080F31088EFF31080012181F329
:10187000108821688A684027BA438A6080F31088FC
:101880002020286000202066EFF31080012181F3E2
:10189000108821680A689A430A6080F31088606F94
:1018A000FFF7FAF802206066308B718B401A81B224
:1018B00034E0308B718B401A81B2708B00289ED03F
:1018C00000299CD0EFF31080012686F3108816685B
:1018D000FF272137BE43166080F31088EFF3108096
:1018E000012282F310882268966876087600966056
:1018F00080F310882020286000202066A066EFF387
:10190000108000E00EE0012282F310882268156842
:101910009D43156080F31088022060662046FFF723
:10192000A3FEF8BD030606D50B0604D5E16E00291B
:1019300000D058E7F8BD4006FCD54806FAD5204649
:10194000EFF31081012383F31088146840239C4334
:10195000146081F310882021C1670021C16600F066
:1019600011F9F8BD0F08000020010004052100084E
:1019700010B5040003D0E06F002802D007E001207A
:1019800010BD002178200155204600F041F82420A8
:10199000E06720680168490849000160606A002822
:1019A00002D0204600F0E6FA204600F0B3FC012801
:1019B000E6D0206841680122D2029143416020684C
:1019C00081680822914381602068016801221143E7
:1019D0000160204600F034FB10BD000010B5006827
:1019E000094988420ED10948816901229203914335
:1019F0008161032109204902C006FFF791F81B20ED
:101A0000FFF708FB10BD0000003801400010024045
:101A100010B586B0044614216846FEF74FFD1749FD
:101A20002068884227D116488269012189030A4328
:101A3000826182690A4005924269C9000A43426193
:101A40004069084005900320400200900220019068
:101A50000020029003200390012004900920694691
:101A6000C006FFF7C7F8002203211B20FFF7EEFA9C
:101A70001B20FFF7DFFA06B010BD00000038014060
:101A80000010024070B580231B58202B01D002208B
:101A900070BD00290BD0002A09D0012483682403DB
:101AA000A34206D10369002B03D1CB0701D001204B
:101AB00070BD00230366046863681B020BD5EFF357
:101AC0001083012585F3108825680126B606354365
:101AD000256083F3108800F0C9FC70BD70B509491A
:101AE00088420ED10848002344691A462146143121
:101AF0000D46E06802F008FD012229462068FFF744
:101B0000C1FF70BD50010020A000002030B5C36FA0
:101B1000202B01D0022030BD00290BD0002A09D093
:101B2000012384681B039C4206D10569002D03D163
:101B3000CD0701D0012030BDC164014640310A8289
:101B40004A8200218422C16611502121C1679C4232
:101B500002D1016900290FD00849C166EFF3108155
:101B6000012282F310880068026880231A43026011
:101B700081F31088002030BD0149EEE7932500086D
:101B800035250008074910B588420AD106480021CA
:101B90004469206902F0FEFC218900226068FFF799
:101BA00000F910BD50010020A0000020FEE7000059
:101BB0003EB500211C480091019102914160816075
:101BC0000124184A04610260C16004224261017666
:101BD00041768176FF22C476C232C261024601623A
:101BE000203211718462FEF76FFE002801D0FEF7EB
:101BF000D3FD012000030190000402900094694687
:101C00000948FEF7D9FD002801D0FEF7C5FD0220E6
:101C1000009069460448FEF7CFFD002801D0FEF78A
:101C2000BBFD3EBD00240140BC00002010B5044AAD
:101C30000021044801F048FC0349086010BD000081
:101C4000C84C0008751D000800000020F0B587B0E2
:101C500014216846FEF732FC1E48426901214904FE
:101C60000A43426142690A400592426949000A43B7
:101C700042614069184D0840184F059000222946DE
:101C80003846FFF78EF8FF2601360920002231463C
:101C9000C006FFF786F83820002400900920019440
:101CA00069460294C006FEF7A5FF0095012502943F
:101CB0006946384601950394FEF79CFF092002947B
:101CC0006946C006009601950394FEF793FF07B09E
:101CD000F0BD00000010024030F800000004004891
:101CE00010B513481149016012494160002181601B
:101CF0000161416181610122C161C2600162FFF73E
:101D0000A7F8002801D0FEF747FD00210848FFF79B
:101D100055F8002801D0FEF73FFD00210448FFF7E9
:101D200072F8002801D0FEF737FD10BD00540040C6
:101D3000FC0000202B1D200010B50C480A49016052
:101D4000E1214902416000218160C160016181613E
:101D5000C1610C22016242614162FFF709FE002865
:101D600001D0FEF719FD10BD0038014050010020E0
:101D7000FEE7704786B00120E121009008234E2243
:101D8000490250A000F062FF0121059001F056FBCE
:101D9000FF20013001F048FF0026049000960196D4
:101DA00002960323324605210396304600F0ECFEEE
:101DB00004460168006AFEF77FFBA06955224100D6
:101DC000E06AFEF754FB059800F0BCFE401C05D10C
:101DD000059800F0D3FE002002F048F90927FF061D
:101DE0000499059800F088FF0500F9D0681C04D11B
:101DF0003648374900688842F2D108213846FEF754
:101E0000CBFF00281DD0606A067010213846FEF70F
:101E1000C3FF002819D0606A467020213846FEF7BB
:101E2000BBFF002815D0606A867023462A460499B5
:101E3000059800F06FFF206A007800280DD001227D
:101E40000CE0616A01200870DFE7616A01204870D8
:101E5000E3E7616A01208870E7E7002220211D483E
:101E6000FEF79FFF206A4078002801D0012200E0A1
:101E7000002210211748FEF794FF206A807800287E
:101E800001D0012200E000220121C9021148FEF721
:101E900088FF206AC078002801D0012200E00022DB
:101EA000012109030B48FEF77CFF206A0079002816
:101EB00001D0012200E00022012149030548FEF77C
:101EC00070FF8DE77561727431000000B80000206A
:101ED0005A42B2060004004810B505480069FFF7F1
:101EE00047F802F02DFD012801D002F0FBF910BDEA
:101EF00000E000E030B595B030216846FEF7DEFA2C
:101F000000240F94122000900D940120129403904D
:101F1000059010200E941094139406900490C00223
:101F2000099040010C9402250A90119408950B9495
:101F30006846FFF7BDF9002801D072B6FEE707201A
:101F40000C900E9401210D950F940CA8FFF7F6F854
:101F5000002801D072B6FEE721201090129413944D
:101F600010A8FFF777F8002801D072B6FEE715B089
:101F700030BD704710B5818C090707D501684A68E4
:101F80000123DB039A43436B1A434A60818CC907E0
:101F900007D001684A6801235B049A43836A1A43A5
:101FA0004A60818C890707D501684A6801231B04B0
:101FB0009A43C36A1A434A60818C490707D501686E
:101FC0004A6801239B049A43036B1A434A60818C3D
:101FD000C90607D50268916801231B039943836BE7
:101FE00019439160818C890607D501688A680123AD
:101FF0005B039A43C36B1A438A60818C490612D5EE
:1020000003685A6801210905046C8A4322435A6017
:10201000026C8A4207D10268516803235B05994329
:10202000436C19435160818C090607D501684A68E1
:102030000123DB04806C9A4302434A6010BD000018
:10204000FEB507460025803704467D60FEF7B0FEEA
:10205000019020680068264600076036002819DADB
:10206000274800900121002249052046019B00F0ED
:10207000BDFA00280ED0EFF31080012181F3108803
:1020800021680A6880239A430A6080F31088202020
:10209000E06729E020680068400728D518480090CC
:1020A0000121002289052046019B00F09FFA0028AB
:1020B0001DD0EFF31080012181F3108821680A6898
:1020C000FF2321339A430A6080F31088EFF31080D6
:1020D000012181F3108821688A68520852008A60C1
:1020E00080F310882020386035760320FEBD202044
:1020F000E06738602566656635760020FEBD000025
:10210000FFFFFF0110B5406A0022014640314A83BB
:102110004A82FFF7CBFA10BD10B5EFF31081012210
:1021200082F3108802681368FF242134A3431360EC
:1021300081F31088EFF31081012282F31088026886
:1021400093685B085B00936081F31088016E01293E
:102150000BD1EFF31081012282F31088026813681B
:102160001024A343136081F31088202280210A5099
:1021700000210166816610BD70B5014640310346FD
:1021800080338C8B1D680268222D04D09069082151
:102190000843906170BD928C456D22402A80426D4B
:1021A000921C42654A8B521E4A834A8B002AF1D107
:1021B000EFF31082012484F3108804682568FF2659
:1021C0002136B543256082F31088EFF31082012495
:1021D00084F310880468A5686D086D00A56082F31B
:1021E000108820221A6000238366436604686268B0
:1021F00012020BD5EFF31082012585F310882568B4
:102200000126B606B543256082F31088026E012AC6
:1022100002D0FFF763FC70BD0366EFF31082012369
:1022200083F310880468256810239D43256082F39A
:1022300010880268D469E443E40600D41362098B71
:10224000FFF712FA70BD70B5014640310346803386
:102250008C8B1D680268222D04D0906908210843E8
:10226000906170BD928C2240446D2270426D521C70
:1022700042654A8B521E4A834A8B002AF1D1EFF302
:102280001082012484F3108804682568FF26213613
:10229000B543256082F31088EFF31082012484F3A4
:1022A00010880468A5686D086D00A56082F3108829
:1022B00020221A6000238366436604686268120263
:1022C0000BD5EFF31082012585F3108825680126D0
:1022D000B606B543256082F31088026E012A02D04B
:1022E000FFF7FCFB70BD0366EFF31082012383F35D
:1022F00010880468256810239D43256082F31088A8
:102300000268D469E443E40600D41362098BFFF742
:10231000ABF970BD70B5044680682169E269084375
:10232000616900251143084321680A68454B1A403A
:1023300002430A6021684868032212039043E2685E
:1023400010434860A169206A2268084391680B2302
:102350001B029943014391603B492068884210D198
:102360003A48006B8007800F1AD0012805D0022858
:1023700005D0032816D1022115E0042113E008211D
:1023800011E0334988420BD03249884208D03249A3
:10239000884205D03149884202D03149884201D172
:1023A000002100E010210122E369D2032D482E4EC6
:1023B000934222D1002906D002290BD0042905D04E
:1023C000082933D117E0FEF73DFF01E0FEF74AFF91
:1023D000002832D0616840004A088018FEF7B4F83F
:1023E00001461039B14221D81F49491C014000075C
:1023F000400F08431FE01046ECE7002906D00229F1
:102400000BD0042905D0082910D111E0FEF71AFFDE
:1024100001E0FEF727FF00280FD061684A08101876
:10242000FEF792F801461039B14203D9012504E0C4
:102430001046F2E780B22168C8600020A066E0661E
:10244000284670BDF369FFEF0038014000100240DC
:102450000044004000480040004C00400050004054
:102460000014014000127A00EFFF000070B54165D2
:10247000014640310A834A8300238366012284682F
:102480001203FF25944204D10469002C13D1264C79
:102490000AE07F26002C09D001252D07AC420CD183
:1024A0000469002C05D03F248C8307E00469002CCC
:1024B00001D08E8302E08D8300E08B830146803162
:1024C0004B6022230B60EFF31081012383F310880C
:1024D00003689C6801252C439C6081F31088816807
:1024E000914202D1016900290ED01049816601692B
:1024F00000290BD0EFF31081012282F310880068CD
:102500000268FF23213309E009498166EFF3108156
:10251000012282F310880068026820231A430260B7
:1025200081F31088002070BDFF01000047220008E1
:102530007921000810B5C16F212910D10146403121
:102540004A8A002A0CD0C26C03681288D205D20DC8
:102550001A85C26C921CC264488A401E488210BD13
:10256000EFF31081012282F310880268136880243F
:10257000A343136081F31088EFF31081012282F3EB
:1025800010880068026840231A43026081F31088B3
:1025900010BD10B5C16F21290ED1014640314A8AC4
:1025A000002A0AD0C26C036812781A85C26C521CC9
:1025B000C264488A401E488210BDEFF31081012298
:1025C00082F31088026813688024A343136081F3A8
:1025D0001088EFF31081012282F3108800680268EE
:1025E00040231A43026081F3108810BDFFB50646F0
:1025F0008036054681B00F460446603534E00A98BF
:10260000401C31D0FEF7D4FB0499411A0A9881424C
:1026100018D8002816D020680168490724D5802FD3
:1026200022D0402F20D0C169C94309070CD4082704
:1026300007622046FFF770FD7760002028760120B2
:1026400005B0F0BD0320FBE7C069C04300050BD413
:1026500001202168C00208622046FFF75DFD2020AE
:10266000706000202876EDE72068C169384688430D
:1026700005D0002103988142C1D00020E0E701216C
:10268000F8E7000010B50248FFF728F810BD000079
:1026900050010020F8B5040C8BB2264682B25E438E
:1026A0000D0C1046370C584336048019002179412F
:1026B00016466E43370C36048019794126466E4320
:1026C0008919F8BD30B47446641E2578641CAB4289
:1026D00000D21D46635D5B00E31830BC1847000064
:1026E0008307FF22DB0E9A408907090E99400028D4
:1026F00008DB830809489B001B18186890430843AF
:10270000186070470007000F0838830804489B00D2
:102710001B18D86990430843D861704700E400E073
:1027200000ED00E00021C9430160416000218160AB
:10273000C1600161034A41618261C161416202621B
:102740008162704710270000F7B5044684B000206E
:102750000190E06AC16B2046884700284BD00020DA
:102760000290E06A4068401C00900698002802D061
:10277000A669656909E0656A002D02D1A06A002892
:1027800001D0A66A01E000252E460098002870D0EE
:102790007D213046C900FDF7D7FE7D21C900694380
:1027A000431801990598009A4118E06AC76A2046C3
:1027B000B847002806D0411C07D0A168002921D0C5
:1027C00000211DE04C4868210160207B800712D564
:1027D000E06A006801280ED1474E3568682D03D0A5
:1027E0006F2D01D0092D06D1204600F0A4F9204616
:1027F00000F0A8F935600020C04307B0F0BD491CC7
:102800008142FCDB0199091801910099081A009096
:1028100061D10298002802D0012866D12EE0E06A3A
:1028200041680598415C0698002807D00F2921D0FF
:1028300014DC05291ED0062914D11BE0062919DD58
:102840000F2907D0102905D0162915D0172903D034
:10285000002008E0052006E0092004E0102909D046
:10286000162909D001200090002807D001200290ED
:1028700031E03AE00420F6E70620F4E7E36A059841
:102880005A68069F815C002F06D004291BDD1129A0
:1028900019D0172917D005E00F2910D010290ED014
:1028A00017290ED00020996808180199009008187F
:1028B000D96888420AD91048104901609BE7401D39
:1028C00002E0093000E0401C105CECE702200290BE
:1028D0000098002809D0E069002803D1216A002966
:1028E00000D155E70546266A52E7E06A019A036B74
:1028F00020460599984780E7B80000205B42B20661
:1029000070B50068049C451C09D0207061701012DD
:10291000A070E270181220716371062070BDFDF77F
:1029200012FD02780A70007948700220704700009A
:1029300070B506460D46087831681446814203D0CA
:10294000002801D0002070BDA01E81B2284600F0F2
:10295000C7F829191E394A7F0B7F11021943884293
:1029600001D1204670BD307B400702D5304600F0D3
:102970001BF80449024808600020C04370BD0000F5
:102980005A42B206B8000020704738B5016B0446C1
:102990004A7A086900920B7A8A7A45684968A8479A
:1029A00001206060002038BD006B006901690847A4
:1029B00010B50446006B002805D0006801F0DCFA71
:1029C000206B01F0D9FA204601F0D6FA10BD0120A3
:1029D0007047000008781178884207D0002805D099
:1029E0000449034808600020C04370470020704736
:1029F0005F42B206B80000200868801E0860002010
:102A0000704710B5046BE268002A05D00122FFF779
:102A10009BFE0020E06010BD0022FFF795FE00281D
:102A2000F9D10121E16010BD10B5006B1A460069B3
:102A3000C468A047002804D0034905200860801F0F
:102A400010BD012010BD0000B8000020002070471C
:102A500070B5006B7D23006915468468DB00A047D4
:102A6000002804D0034905200860801F70BD284657
:102A700070BD0000B800002070B50C46054689B254
:102A800000F02EF801462855601C090A2954A01CA4
:102A900070BD0000027C920701D5FF2200E0F72202
:102AA000002904DB914202DC0160002070470349E9
:102AB000162008600020C04370470000B8000020C6
:102AC00010B504467D214069C900FDF73DFD7D221A
:102AD000A169D2005143401801F0B0FA10BD0000C6
:102AE00070B50A4DFF23EE1D1A46F93605E004784D
:102AF00054402A5D5A40335D401C0C46491E89B241
:102B0000002CF4D11802104370BD0000244D0008C1
:102B1000FEF736FAFFF7EEF9FFF798F8FFF70CF932
:102B2000FFF746F8FFF7DCF800F096FCFFF77EF8B9
:102B300000F0ACFCFEE7002802D0C16A096C08472F
:102B400070470000002802D0C16A896B084703491A
:102B5000162008600020C04370470000B800002025
:102B6000002802D0C16A496C084703491620086052
:102B70000020C04370470000B8000020002802D0A9
:102B8000C16AC96C08477047FFB581B0064630205E
:102B90000D9F0B9D01F048F8041E3CD0029841C4E3
:102BA00002980026083C002837D001F03DF820624A
:102BB000002834D00299FDF77FFC0498A0600398A8
:102BC000E060049800282FD001F02EF86062002801
:102BD0002CD00499FDF770FCA5610A98E061002DE6
:102BE00028D06800054601F01FF8E062002823D0D5
:102BF0002946FDF761FC27610C986061002F1FD00A
:102C00007800054601F010F8A06200281AD0294685
:102C1000FDF752FC204605B0F0BD2662CDE7204608
:102C200001F0AAF90020F6E76662D5E7206A01F014
:102C3000A3F9F4E7E662DEE7606A01F09DF9F5E7E3
:102C4000A662E7E7E06A01F097F9F5E7FFB581B022
:102C50000198274F1646002831D0007800282ED042
:102C6000342000F0E1FF05002BD0FFF75BFD214889
:102C7000E8620198FDF792FD0090002824D014200E
:102C800000F0D2FF2863002823D000990446016198
:102C90000198FDF789FB401C00F0C6FF2060000092
:102CA00017D00199FDF75AFB029860604E2E16D09E
:102CB000452E14D04F2E12D02846FFF75FFF162066
:102CC0000BE0002005B0F0BD2846FFF757FF0220BB
:102CD00003E02846FFF752FF0C203860F1E7A672A8
:102CE000049820720A9860720020E0602846E9E7A4
:102CF000B8000020244F0008002802D0C26A926A5F
:102D000010470349162008600020C04370470000A8
:102D1000B8000020FFB5CBB01D4607002BD0F86AE5
:102D20004C99406802900C1820462038C07F0990CA
:102D30000298085C00906078A1780002401886B282
:102D40000998069000980790F86A4DA9C2694C98B6
:102D50009047089000980300FFF7B4FC18F90F0F94
:102D60006969B5D2F8F9F9F9F9F9F9F9E2F7F6F97B
:102D7000F9F9F9F5F4F9162161E1022816D02A6A69
:102D800003CD0092F9A2E37824791B021D19741A6D
:102D90007D216B1E09018B420ED3F7A0019001200B
:102DA0000295039204910AAB009057E06A6AE968C1
:102DB000A8680092FAA2E6E7002C02DB61198142C2
:102DC0000ADD002C00DB761900200392F8A16C4686
:102DD00043C40AAB0222A3E1F86A0AA9826906A8E1
:102DE0009047E917490F4919C9106A0700D0012215
:102DF00089180AAA11540099164600228C466519B2
:102E00001146401C07E063461B5D93401943072AA7
:102E100008D0521C641CA542F5DC002A01D03154B4
:102E2000401CBFE2315400210A46401CF2E704284E
:102E30001AD0EA69A969E86A0090E6A0E3782479E3
:102E40001B021D19B41A6A1E7D2A13D37D2103901B
:102E5000C9A2049101206C4625C40AAB032206A92D
:102E6000384600F055FF9DE26A692969A86A00901A
:102E7000DCA0E3E7002C03DB621901928A4209DD42
:102E8000002C00DB7619CAA200216C46039046C4D0
:102E90000AAB44E1F86A0AA9826906A890476A0069
:102EA0000AA90A54401C0AE0009B62009B5A1B0AB4
:102EB0000B54009B401C9A5C0A54401C641C019AF1
:102EC000A242F1DC6EE26868301A02D429688142BD
:102ED00001DCCAA16EE0E178227909028918FF229B
:102EE0001202914208D0002907D0CFA200200396F9
:102EF0000192029100902FE001212A6A1154BAE058
:102F0000E869311A02D4A869884201DCD6A151E0EF
:102F1000E078227900028018EA6A49005052AAE05B
:102F2000E07821790002421860797B238446686842
:102F30001B01311A501E984203D26046C0009042D5
:102F40000DDA05E09EE080E05FE016E076E02FE23B
:102F5000D1A101206C460FC40AAB0322E0E0002996
:102F600004DB2B688818984202DDB618D7A121E04F
:102F7000A31D286A00F044FA38E0E07821790002C5
:102F80004118E8696279301A4B1E7B2B02D24B0044
:102F9000934207D07B22D8A3012001930392029190
:102FA0000090D9E7002804DBAB6942189A420BDD98
:102FB0007618E0A100206C4643C40AAB022206A9A1
:102FC000384600F0A5FEEDE106210DE0029B4C9C89
:102FD0005B18E45C4C9E24029B195B784600E31866
:102FE000EC6A401CA353891C8242EFDCF86A0AA9F0
:102FF000826906A8904704464C98042201190AA841
:103000000019FDF7F3F9201DCCE1F86A0AA98269DD
:1030100006A89047411C0446B4200AAD68544E1CD3
:10302000FF20A8558E1C1622A819CEA1FDF7DEF9A7
:1030300030461630021B521E2A55B3E15C21CF48A0
:1030400001600020C0434FB0F0BDE869301A00D5E0
:103050005CE7A9698142FBDDE178227909028918E0
:10306000ED6A43006279A479E85A12021219084005
:103070008A431043E8520AA84D9A4C99FDF7B6F9D5
:103080004D988FE1E0782179000240180090607936
:10309000A1790002401881B2E079227A00028018FA
:1030A000EB69627AF41A0194CC1A431E792B07D289
:1030B000009B012B04DB7D2B02DC4300934210D0EC
:1030C0007D21009A0591792302AC0DC4AC49012001
:1030D000019100900AAB032206A9384600F018FEC1
:1030E00060E1019A002A0CDB009BD3180493AA69C3
:1030F000934206DC002C07DB23180393934202DC87
:1031000013E0002C00DB09180198002801DB00986F
:1031100036189C4A00206C46039145C40AAB022233
:1031200006A9384600F0F4FD3CE1F86A0AA9826974
:1031300006A8904700990AAA490011540A21401C88
:103140000DE0029A4C9B52189B5C4C9E1B029219FC
:10315000527866009A18EB6A891C9A53641C039A89
:10316000A242EEDC0AAA019919E1000072656164CD
:103170005F62697473000000496C6C6567616C2064
:103180006E62206F662076616C7565732025642001
:10319000696E20257320286D6178202564290A0036
:1031A000726561645F696E7075745F6269747300E3
:1031B000496C6C6567616C20646174612061646452
:1031C0007265737320307825305820696E2025731E
:1031D0000A000000726561645F72656769737465F7
:1031E00072730000726561645F696E7075745F72FE
:1031F000656769737465727300000000496C6C65E3
:1032000067616C20646174612061646472657373CA
:1032100020307825305820696E2077726974655F98
:103220006269740A00000000496C6C6567616C207B
:10323000646174612076616C756520307825305842
:1032400020696E2077726974655F626974207265A7
:103250007175657374206174206164647265737341
:10326000202530580A000000496C6C6567616C20AD
:1032700064617461206164647265737320307825C1
:10328000305820696E2077726974655F726567696E
:10329000737465720A000000496C6C6567616C208C
:1032A0006E756D626572206F662076616C756573F0
:1032B00020256420696E2077726974655F62697485
:1032C0007320286D6178202564290A00496C6C659B
:1032D00067616C20646174612061646472657373FA
:1032E00020307825305820696E2077726974655FC8
:1032F000626974730A000000496C6C6567616C2038
:103300006E756D626572206F662076616C7565738F
:1033100020256420696E2077726974655F72656725
:1033200069737465727320286D6178202564290A99
:1033300000000000496C6C6567616C206461746119
:103340002061646472657373203078253058206979
:103350006E2077726974655F7265676973746572F0
:10336000730A00004C4D42404C49424D4F44425577
:10337000535F56455253494F4E400000B80000205D
:10338000884F0008D44F0008EC6A4B00E45A240A26
:103390001454EC6A401CE35C1354401C491C049B0D
:1033A0008B42F1DCF96A099A0968114308D00CE0F4
:1033B00009A2012101920AAB009102900A46FEE5A2
:1033C000397C490701D400203DE602460AA9384667
:1033D00000F0B8FC37E60000556E6B6E6F776E201C
:1033E0004D6F646275732066756E6374696F6E20CD
:1033F000636F64653A2030782530580A0000000079
:10340000F0B5002401269C460D468F1813E06A1A79
:10341000D20863469B5C3246A240134201D001228F
:1034200000E000224255641CE217520F1219D20824
:10343000D200A41A6D1CAF42E9D8F0BD002802D01A
:10344000C26A126910470349162008600020C04371
:1034500070470000B8000020EFF3058000280CD171
:10346000EFF31081084A0029106801D0022804D027
:10347000002805D00020C04370470520C043704796
:1034800001201060002070476400002010B5EFF3A9
:10349000058000280CD1EFF310810A4A002910683A
:1034A00001D0022804D0012805D00020C04310BD5F
:1034B0000520C04310BD0220106000F083FE0020F4
:1034C00010BD000064000020F0B585B08C460023DC
:1034D000EFF30581039300294AD1EFF3108100290E
:1034E00003D024490968022942D0002840D0002393
:1034F0006C4680251821237404AC002A2CD0136854
:10350000002B00D01C469369002B03D019465B1E8C
:10351000382B02D21379DB0702D0002005B0F0BDB2
:103520005669002E00D0B5089768D368002F0ED0DA
:103530005C2B1DD31269002A1AD0002E18D06E46BB
:1035400086C663462A46214601F0D7F90FE0002BD4
:103550000ED11269002A0BD103AA01920091AAB2DE
:103560006346214601F0A0F9012801D00020039014
:103570000398D3E764000020F8B5134C0F46666942
:1035800005462068001D00F082FC681C07D1002F52
:1035900005D021680D48091D00F0C8FCF8BD206861
:1035A000751945602168B54204D2A068091D00F074
:1035B000A5FCF8BD6068091D00F0A0FC206B8542E9
:1035C000F7D22563F8BD000014000020C8060020D3
:1035D000F8B5054600F0B6FC294C2069401C206176
:1035E0002068284F002803D0E069002825D02AE071
:1035F00025602069012826D1002614207043C019B7
:1036000000F06EFC761C382EF7D31F4800F068FCE3
:103610001D48143000F064FC1B48283000F060FCAA
:1036200019483C3000F05CFC1748503000F058FC62
:10363000154860601430A06005E02068E96AC06A3F
:10364000884200D82560E06A401CE0626864E86A4D
:10365000A169884200D9A06114214843C019291DDD
:1036600000F064FC00F07AFCE069002806D02068D5
:10367000E96AC06A884201D200F0A0FCF8BD0000EF
:1036800014000020180200207806002038B500F051
:1036900059FC114CA06800281AD1104800F020FCF9
:1036A0000E48143000F01CFC0C48206014300B4B0A
:1036B0006060002028331A460090503210210A2002
:1036C00000F040FEA060002802D005A100F082FCBE
:1036D00000F044FC38BD000050000020DC06002053
:1036E000546D72510000000010B5026C0C46002AA7
:1036F0000CD0C1688B18C36041688B4201D2194657
:1037000001E00168C1602046FCF770FE10BDF8B50D
:10371000856B174604460026026C002A11D0002F44
:1037200019D0E068FCF762FEE168206C091AE160DC
:103730002268914202D26168081AE060022F17D015
:1037400019E02068002816D1606801F06DF906467E
:10375000002060600FE0A068FCF748FE216CA068C4
:103760004018A0606168884205D32068A06002E02C
:10377000002D00D06D1E6D1CA5633046F8BD10B540
:1037800004464030407E002805D0012806D002289B
:1037900007D072B6FEE7206B00F0EEFB204600F08B
:1037A000EBFB10BD03210E488902420705D0C01D66
:1037B000C0080B4AC000821A891A0A4A002341181D
:1037C00009C20839C908C900183A11604B600B607A
:1037D0000B1A0AC093600120C0075360D060704785
:1037E000AC0E0020780000200F4E104C104F11E05E
:1037F00000F0A8FBF068C568281D00F048FB2069B0
:10380000401E2061E068401EE06000F0A7FB2846F3
:10381000FFF7B5FFE0680028EAD138680128F9D938
:1038200000F0CCFBF6E70000B406002014000020F6
:103830001802002070B5049C1D46002909D02260A2
:103840002164E0630121204600F09CFD4034257393
:1038500070BD2460F4E7FFB581B097000C9C0E4664
:103860000A9DA5223946206BFCF701FE206B3F1F05
:10387000C019C708FF00780701D072B6FEE722180A
:10388000315C20321175315C002902D0401C1028B7
:10389000F5D32046403000260090C670382D00D366
:1038A0003725E5622665201DE56400F024FB2046EF
:1038B000183000F020FB24613820401B6462A061B6
:1038C0006665009806763846049A019900F010FA69
:1038D00020600B98002800D0046005B0F0BD000007
:1038E00030B5114900E011460A688242FBD34B68AB
:1038F0005C18844203D14068181848600846436841
:103900001C18944209D1084C103C2468A24209D0EA
:1039100052689A1842600A6812680260814200D0B8
:10392000086030BD0460F9E77800002070B500241D
:1039300041600B4D0061914206D8D11A82699142D3
:1039400006D2011D686807E09A4203D2994201D36A
:10395000012403E0011D286800F0D0FA204670BD64
:103960005000002010B5044600F0ECFAA06B0028CF
:1039700004D0002400F0F2FA204610BD0124F9E73B
:1039800030B589B02C4D4EE00498002806DA059A2F
:103990000799069890470498002844DB069C6069C4
:1039A000002802D0201D00F072FA02A800F0A4F84E
:1039B000024604980300FEF785FE0A060606362333
:1039C0002F06063623360598A1690346411820467E
:1039D000FFF7ACFF002826D0616A20468847E069DF
:1039E000012820D1002000900598A16900234218E9
:1039F0001946204601F03EF9002814D172B6FEE7C0
:103A00000598A061002805D0811813462046FFF7CD
:103A10008DFF08E072B6FEE72C20005D002802D181
:103A2000204600F0A9FA002204A9A86800F0ECFDE5
:103A30000028A9D109B030BD50000020FEB50F46C6
:103A4000054600F0F3FB01A800F056F80446019883
:103A5000002802D001F08AF8FEBD1E4E002F10D0C3
:103A600070680068002833D00027291B3A46B068E8
:103A700000F0C2FA01F07AF80028EDD100F09EFAC9
:103A8000FEBDA542F1D801F071F830682746C06844
:103A9000C468201D00F0FBF9E069012812D1A0697B
:103AA0002B4641193A462046FFF740FF002809D02F
:103AB00000200346014600902A46204601F0DAF82D
:103AC000002803D0616A20468847FEBD72B6FEE733
:103AD0000127CAE75000002006484168096800290C
:103AE00005D04168C968C968496801637047002109
:103AF000C943FAE71400002070B5054600F030FF16
:103B0000064E04463069844203D200F009F80120D1
:103B100000E0002028602046346170BD5000002085
:103B2000F8B5164D20E0C068C4680668201D00F096
:103B3000AEF9616A20468847E069012814D1A0697E
:103B40008019B04206D924616060211D286800F008
:103B5000D5F909E000200346014600903246204690
:103B600001F088F8002807D0286801680029DAD118
:103B7000696829606860F8BD72B6FEE750000020F1
:103B800003480068401C72B600D0FEE7FEE7000064
:103B900080000020074C20680168002907D0C06819
:103BA00000210068FFF74AFFFFF7EAFEF3E7012173
:103BB0000020F7E750000020F8B5044600F0C2F9F5
:103BC000254640350526AE57274624370BE0606A68
:103BD00000280AD0384600F097FF002801D000F0F6
:103BE00089FA761E76B2002EF1DC0027FF436F7152
:103BF00000F0B4F900F0A6F90426AE5720461030C4
:103C000000900BE0206900280AD0009800F07CFFAB
:103C1000002801D000F06EFA761E76B2002EF1DC9C
:103C20002F7100F09BF9F8BDF8B50546002700F0AC
:103C3000FDFA284E3068002801D1FFF7B3FDF06887
:103C400005423FD1002D3DD00835680708D06807F0
:103C5000400F0821081A4519680701D072B6FEE71F
:103C6000002D2FD0706885422CD81A48103001469C
:103C70000C6801E020460C466168A94202D2216826
:103C80000029F7D131688C421CD007682168016097
:103C900060680837411B102908D96019420701D014
:103CA00072B6FEE741606560FFF71AFE61687068F2
:103CB000401A7060B268904200D2B060F068014370
:103CC000002003C400F052FF780701D072B6FEE76F
:103CD0003846F8BD6800002004490868002803D071
:103CE0000868026D521C02650868704714000020C5
:103CF00010B50124031F24061C601B1F1960191F27
:103D0000024B0B60143940380A6010BD813B00083B
:103D1000F8B5074606981D4616460C46002805D0FD
:103D20003846FEF7CDFE3846FEF71AFF6068294692
:103D300080306060F86A8269204690472E54401CAB
:103D4000F8BD0000F7B50546C06A82B0036A1146A7
:103D5000039898470646A8681F4F002804D0002003
:103D600000E0401CB042FCDBE86A3246436A284669
:103D7000039998470446401C12D1287B800728D518
:103D80003868009009281AD0682818D0202816D042
:103D90002846FEF795FE2846FEF7E2FE00983860BA
:103DA000287B800701D5601CDED0002C11DDB442D9
:103DB0000FD00A4838600020C04305B0F0BD284647
:103DC000FEF7B9FE2846FEF77BFE2846FEF7BAFE50
:103DD000E4E72046F1E70000B80000205B42B206AD
:103DE00038B54569002400226946E86800F00CFCFB
:103DF000012801D0204638BD641CF4E710B54469A1
:103E0000E068002816D100220121C82000F07CFAC9
:103E1000E06003220021012000F076FA2061218970
:103E200000226068FCF7BDFF2146012214312068A2
:103E3000FDF728FE002010BD10B54069C06800F0F5
:103E4000E3FB012802D00020C04310BD002010BDBC
:103E5000F8B5446915460E461F462189012260685F
:103E6000FCF79FFFAAB231462068FDF74FFE3946A6
:103E7000206900F04AFC012802D00020C043F8BDB0
:103E8000218900226068FCF78CFF0020F8BD4368A0
:103E9000826801699A60836842685A604A6882420F
:103EA00001D182684A60002202610868401E0860F1
:103EB00008687047034B036018465C300860802038
:103EC00010607047F4070020044B036018465C3014
:103ED0000860FF200130106070470000500A002089
:103EE0000146083100224160D243C1608260016115
:103EF00000210160704700210161704730B50B68F7
:103F00005A1C02D00246083202E0026904E022464E
:103F1000546825689D42FAD953684B6099608A605D
:103F2000516008610168491C016030BD42684A6007
:103F300093688B6093685960916008610168491CBF
:103F40000160704772B604480168491C0160BFF304
:103F50004F8FBFF36F8F70478000002005490868BE
:103F6000002804D0401E086000D162B6704772B6C7
:103F7000FEE700008000002070B500281AD004463B
:103F80000D4D083C6068E968084201D172B6FEE751
:103F90002268002A01D072B6FEE78843606000F014
:103FA00045F960686968401868602046FFF798FC2A
:103FB00000F0DCFD70BD0000680000200120044915
:103FC00000074860BFF34F8FBFF36F8F704700004B
:103FD00000ED00E010B5074B0022D4001C59002C66
:103FE00003D0521C082AF8D310BDD2009950D11822
:103FF000486010BDD801002070B515460E46044635
:10400000FFF7A0FF20464030042282560021521CB8
:1040100000D1017105228256521C00D14171FFF777
:104020009DFFA06B002805D120462A46314624304A
:1040300000F078F82046FFF7BFFD70BD10B5020014
:104040000FD00948806B002801D072B6FEE700F05F
:10405000EDF800211046FFF78FFA00F087FD0028E9
:1040600001D1FFF7ABFF10BD1400002070B505466D
:10407000FFF768FF194C002D00D12568281DFFF7B8
:1040800006FFA86A002803D028461830FFF7FFFE75
:10409000E06A401CE0622068854207D1291D104873
:1040A000FFF744FFE068401CE06007E02069401E25
:1040B00020612846FFF763FBFFF70EFDFFF74EFF79
:1040C000E069002809D02068854206D1A06B00284D
:1040D00001D072B6FEE7FFF771FF70BD140000203B
:1040E000B406002002498A6A02604969416070474B
:1040F000140000200149012048627047140000208C
:1041000010B50C46002809D0054909681831FFF799
:10411000F5FE01212046FFF72FFA10BD72B6FEE72B
:104120001400002070B514460D4600280DD0084933
:1041300009681831FFF7FAFE002C01D00025ED4385
:1041400021462846FFF718FA70BD72B6FEE7000058
:104150001400002070B504002FD0226D002A0ED06C
:10416000E06C884200D30146E06A884225D0012AEB
:1041700023D1124D2A68944203D172B6FEE772B67B
:10418000FEE7E162A269002A02DB3822511AA1612E
:1041900014220B4E50436169801981420DD1201DBC
:1041A000FFF775FEE06AA969884200D9A861142169
:1041B00048438019211DFFF7B9FE70BD140000208F
:1041C0001802002030B587B00024039405AA04A982
:1041D00003A80494FFF76EFE0499039800940191DC
:1041E000029000230DA10F48059A00F086FB0E4DAA
:1041F0000028686310D000F011FD012803D0401C96
:104200000AD172B6FEE772B60020C04328630120CF
:10421000E8616C6100F03EF807B030BD49444C45A0
:1042200000000000E9370008140000200248816BFC
:10423000491C8163704700001400002010B513482A
:10424000816B002902D00121416210BD0021416231
:1042500081690F4A02E0002915D0491E14234B43FF
:10426000D358002BF7D014234B439A1853681446A5
:104270005B6808345360A34201D15B685360DA681D
:104280000260816110BD72B6FEE7000014000020DC
:104290001802002070B50F48016AFF221204114372
:1042A0000162016A1202114301620B4C0025256173
:1042B000A5610A487D21C9000068FCF745F9401E48
:1042C00060610720206106480560FBF747FF00207A
:1042D00070BD000000ED00E000E000E010000020F4
:1042E0008000002010B5FBF74DFF044600F03EFBB8
:1042F000002803D001200349000748602046FBF74F
:1043000045FF10BD00ED00E0F8B517460E4605006C
:1043100014D0002E14D070435030FFF785FC0400F9
:104320000AD0002146200155224650323B463146F4
:1043300028460094FFF77EFA2046F8BD72B6FEE7E5
:104340000020E9E7F8B5069D002806D0002B06D02E
:10435000002A08D0002904D009E072B6FEE772B640
:10436000FEE772B6FEE7002901D072B6FEE75024E0
:104370001C46012640339E712B460094FFF75AFAE3
:104380002046F8BD70B50D46040025D0FFF7DAFDD4
:10439000216CE06B48432168411861600021A163F2
:1043A0002168A160E06B216C401E484321684118E0
:1043B000E1600021C943204640300171417130382D
:1043C000002D0BD0FFF78CFD20462430FFF788FD31
:1043D000FFF7C4FD012070BD72B6FEE72169002918
:1043E000F6D000F091FB0028F2D0FFF7E7FDEFE7F1
:1043F000FFB5002683B01D46040003D004980028B2
:1044000002D006E072B6FEE7206C002801D072B63A
:10441000FEE7022D04D1E06B012801D072B6FEE761
:1044200000F08EFA0027002804D10598002801D05A
:1044300072B6FEE7FFF786FDA06BE16B884207D3FB
:10444000022D05D00598002817D0002E18D01BE0AB
:104450002A4620460499FFF75AF9616A002903D0D9
:104460002046243000F050FB002801D0FFF7A6FDC5
:10447000FFF774FD012007B0F0BDFFF76FFD22E0EC
:104480006846FFF72FFE0126FFF768FDFFF7CEFE17
:10449000FFF758FD2046403004214156491C00D109
:1044A000077105214156491C00D14771FFF756FDA0
:1044B00005A9684600F0CAF9002806D02046FFF793
:1044C0007BFB00F053FB0020D5E7FFF73BFDA06B23
:1044D000E16B884210D1FFF741FD2046103005996D
:1044E000FFF70EFE2046FFF767FB00F03FFB0028BA
:1044F000A0D1FFF763FD9DE7FFF730FD2046FFF7F2
:104500005BFB00F033FB95E7FFB581B01E4604006E
:1045100003D00298002802D006E072B6FEE7206CB5
:10452000002801D072B6FEE7022E04D1E06B01280C
:1045300001D072B6FEE7FBF725FE0090A06BE16BA1
:10454000884208D3022E06D000240098FBF71EFEF6
:10455000204605B0F0BD20464030052545570746AA
:10456000324620460299FFF7D2F8681C03D06D1C32
:104570007D710124E9E7606A0028FAD020462430E2
:1045800000F0C2FA0028F4D003980028F1D00121ED
:104590000160EEE770B50D46040004D0206C0028E1
:1045A00003D072B6FEE772B6FEE72068002804D199
:1045B0006068002801D072B6FEE7FBF7E3FDA26B4E
:1045C0000646E06B904219D9214640310520085635
:1045D000521CA263421C03D0401C487101240EE00F
:1045E000606A0028FAD02046243000F08DFA0028B6
:1045F000F4D0002DF2D001202860EFE700243046EF
:10460000FBF7C4FD204670BDF7B5002582B004005D
:1046100003D00398002802D006E072B6FEE7206CB3
:10462000002801D072B6FEE700F08AF900260028C3
:1046300004D10498002801D072B6FEE7FFF782FC8F
:10464000A76B002F15D020460399FFF74DF87F1E6A
:10465000A7632069002807D02046103000F054FAE4
:10466000002801D0FFF7AAFCFFF778FC012005B075
:10467000F0BD0498002802D0002D03D006E0FFF71B
:104680006DFC27E06846FFF72DFD0125FFF766FC6E
:10469000FFF7CCFDFFF756FC204640300421415681
:1046A000491C00D1067105214156491C00D14671B3
:1046B000FFF754FC04A9684600F0C8F8002820461B
:1046C0000AD0FFF779FA00F051FA2046FFF74AF9CD
:1046D0000028B3D00020CAE7FFF744F900280ED025
:1046E000204624300499FFF70BFD2046FFF764FABB
:1046F00000F03CFA0028A1D1FFF760FC9EE72046BD
:10470000FFF75AFA00F032FA98E7F3B5002683B0C3
:10471000041E354604D0206C002803D072B6FEE794
:1047200072B6FEE700F00CF90027002804D10498C7
:10473000002801D072B6FEE7FFF704FCA06B00284A
:1047400017D0401EA0632068002802D1FFF7C4FAEA
:1047500060602069002807D02046103000F0D4F9AE
:10476000002801D0FFF72AFCFFF7F8FB012005B075
:10477000F0BD0498002802D0002E07D00AE0002DDA
:1047800001D072B6FEE7FFF7E9FB5CE06846FFF791
:10479000A9FC0126FFF7E2FBFFF748FDFFF7D2FB7C
:1047A0002046403004214156491C00D107710521A3
:1047B0004156491C00D14771FFF7D0FB04A9684658
:1047C00000F044F80028204614D0FFF7F5F900F077
:1047D000CDF92046FFF7C6F80028ADD0002D32D025
:1047E000FFF7B0FB606A002828D0206B38210068F2
:1047F000091A24E0FFF7B6F8002819D0206800282D
:1048000007D1FFF79FFB606800F042F90546FFF70C
:10481000A5FB204624300499FFF772FC2046FFF7E1
:10482000CBF900F0A3F9002886D1FFF7C7FB83E797
:104830002046FFF7C1F900F099F97DE70021606893
:10484000FFF788FC9FE7002091E70000F8B50C46D1
:10485000050012D0002C12D0FFF774FB114B5A69DF
:104860006E682068911B471C0BD02F689B6A9F4283
:104870000CD096420AD8012404E072B6FEE772B664
:10488000FEE70024FFF76AFB2046F8BD884205D901
:10489000401A20602846FFF725FCF2E70020206040
:1048A000E9E7000014000020FFB585B0164690002F
:1048B0000F9FFFF7B9F905001CD05C20FFF7B4F992
:1048C000040014D000205921256308550E99009149
:1048D0000390019702943246089B06990598FEF7CB
:1048E000BAFF2046FEF774FE012009B0F0BD28464D
:1048F000FFF742FB0020C043F7E7F0B585B007465D
:104900000B9D0C9C0A98002D15D0002C15D05C2610
:104910002563022559263555002504AE00900196E1
:10492000039502943846FEF796FF2046FEF750FEA8
:10493000049805B0F0BD72B6FEE772B6FEE700005F
:104940000648C169002904D0806B002803D00020EC
:1049500070470120704702207047000014000020BB
:10496000014840697047000014000020F8B52C4C45
:104970000027A06B002808D0206A401C2062606AD3
:10498000002800D001273846F8BD6669761C6661AC
:104990000ED160680068002801D072B6FEE760683A
:1049A000A1686160A060A06A401CA062FFF794F853
:1049B000206B86420AD360680068002810D06068C7
:1049C000C068C568686886420DD2206320681421DB
:1049D000C06A4843134908580128D0D90127CEE7B7
:1049E0000020C043F1E7281DFFF751FAA86A00280C
:1049F00003D028461830FFF74AFAE86AA1698842CE
:104A000000D9A0611421484306494018291DFFF729
:104A10008DFAE86A2168C96A8842CCD30127CAE7BF
:104A2000140000201802002070B500210446002860
:104A300028D0154D2868844201D072B6FEE7206D5B
:104A4000002808D0401E2065E36CE26A9A4219D023
:104A5000002802D016E072B6FEE7201DFFF717FA15
:104A6000E06C3821E062081AA061E06AA969884216
:104A700000D9A8611421484304494018211DFFF7BB
:104A800055FA0121084670BD1400002018020020CC
:104A900070B504460020002C2AD0194DE16A2A681E
:104AA000D26A914225D2A069002804DB2868382107
:104AB000C06A081AA061E06A1422124E504361696C
:104AC0008019814210D1201DFFF7E1F92868C06AE2
:104AD000E062A969884200D9A8611421484380197D
:104AE000211DFFF723FA02E02868C06AE062012076
:104AF00070BDE16C2A68D26A9142F8D370BD0000A3
:104B0000140000201802002070B5C068C468002C92
:104B10000BD0204618300646FFF7B9F9104DA86BA8
:104B2000002804D031460F480EE072B6FEE7201D83
:104B3000FFF7ADF9E06AA969884200D9A86114219C
:104B4000484309494018211DFFF7F0F9E06A296838
:104B5000C96A884202D90120686270BD002070BD18
:104B600014000020A006002018020020F8B5284CF0
:104B70000025A06B2E46002808D0FFF7E3F9A06BB4
:104B8000401EA063A06B002802D03CE072B6FEE796
:104B90002169204F00291CD135E0F868C5682846F6
:104BA0001830FFF774F9281DFFF771F9E86AA16959
:104BB000884200D9A0611421484317494018291D93
:104BC000FFF7B4F9E86A2168C96A884201D3012075
:104BD000606238680028E0D1002D01D0FEF77CFF2C
:104BE000256A002D09D00127FFF7C0FE002800D05C
:104BF00067626D1EF8D100202062606A002802D032
:104C00000126FFF7DBF9FFF7A9F93046F8BD0000F0
:104C100014000020A00600201802002010B586B065
:104C2000FEF734FD0F4CA068002819D00020039037
:104C3000049005AA04A903A8FFF746F90220039AE5
:104C40000499009002920191002307A10848059A57
:104C5000FFF753FEE060002802D0012006B010BD2F
:104C600072B6FEE750000020546D72205376630048
:104C7000953B0008F0B51D4685B0034600200A9E0E
:104C8000002B13D00F4CA768002F0DD068460EC024
:104C9000062910DAFFF754FE022809D000231A462D
:104CA0006946A068FFF7A4FB05B0F0BD72B6FEE749
:104CB00000233246F4E700232A4669463846FFF7C8
:104CC00023FCF1E750000020744F000800000000B2
:104CD00000000000000000000000000000020000D2
:104CE000180000000000000000000000020304059E
:104CF000060708090A0B0C0D0E0F10100102030421
:104D000005060708090A0B0C0D0E0F100000000025
:104D1000000000000102030406070809000000006B
:104D20000102030400C1814001C0804101C08041F3
:104D300000C1814001C0804100C1814000C181406B
:104D400001C0804101C0804100C1814000C181405B
:104D500001C0804100C1814001C0804101C080414B
:104D600000C1814001C0804100C1814000C181403B
:104D700001C0804100C1814001C0804101C080412B
:104D800000C1814000C1814001C0804101C080411B
:104D900000C1814001C0804100C1814000C181400B
:104DA00001C0804101C0804100C1814000C18140FB
:104DB00001C0804100C1814001C0804101C08041EB
:104DC00000C1814000C1814001C0804101C08041DB
:104DD00000C1814001C0804100C1814000C18140CB
:104DE00001C0804100C1814001C0804101C08041BB
:104DF00000C1814001C0804100C1814000C18140AB
:104E000001C0804101C0804100C1814000C181409A
:104E100001C0804100C1814001C0804101C080418A
:104E200000C1814000C0C101C30302C2C60607C75A
:104E300005C5C404CC0C0DCD0FCFCE0E0ACACB0BCA
:104E4000C90908C8D81819D91BDBDA1A1EDEDF1FFA
:104E5000DD1D1CDC14D4D515D71716D6D21213D3EA
:104E600011D1D010F03031F133F3F23236F6F7379A
:104E7000F53534F43CFCFD3DFF3F3EFEFA3A3BFB8A
:104E800039F9F83828E8E929EB2B2AEAEE2E2FEF3A
:104E90002DEDEC2CE42425E527E7E62622E2E323AA
:104EA000E12120E0A06061A163A3A26266A6A767DA
:104EB000A56564A46CACAD6DAF6F6EAEAA6A6BAB4A
:104EC00069A9A86878B8B979BB7B7ABABE7E7FBF7A
:104ED0007DBDBC7CB47475B577B7B67672B2B3736A
:104EE000B17170B05090915193535292965657971A
:104EF000559594549C5C5D9D5F9F9E5E5A9A9B5B0A
:104F000099595898884849894B8B8A4A4E8E8F4FB9
:104F10008D4D4C8C44848545874746868242438329
:104F200041818040000000000100000002000000FC
:104F300000010000952A0008012900082329000823
:104F4000F9290008792A0008512A0008032A0008D4
:104F5000292A000831290008D52900088B290008D2
:104F6000CF29000889290008A92900084D2A00082E
:104F7000B129000864656661756C745461736B00D7
:104F80007561727431000000496C6C6567616C205A
:104F90006E62206F662076616C75657320285725D8
:104FA000642C205225642920696E2077726974650B
:104FB0005F616E645F726561645F72656769737477
:104FC00065727320286D6178205725642C20522546
:104FD00064290A00496C6C6567616C2064617461C6
:104FE0002072656164206164647265737320307837
:104FF000253058206F72207772697465206164646F
:105000007265737320307825305820777269746523
:105010005F616E645F726561645F72656769737416
:105020006572730A0000000048500008000000206C
:10503000BC000000FC00000804510008BC00002077
:1050400054200000180100080000000001000000CA
:10505000040000000000000000127A0000000000C0
:105060000000000000000000000000000000000040
:105070000000000000000000000000000000000030
:105080000000000000000000000000000000000020
:105090000000000000000000000000000000000010
:1050A0000000000000000000000000000000000000
:1050B00000000000000000000000000000000000F0
:1050C0000000000000000000AAAAAAAA50010020C7
:1050D0000000004800010000000000000000000087
:1050E00000000000A0000020804F0008FD3D0008E7
:1050F000513E0008393E0008E13D000884000020D0
:0451000000000000AB
:04000005080000B936
:00000001FF
