:020000040800F2
:10000000080B04203D030008B19D0008D17B0008C7
:10001000AD9D0008F90B0008E5CA00084F03000871
:10002000000000000000000000000000C1A0000867
:10003000FD0B000800000000C19D0008F1A00008B1
:100040005903000859030008590300085903000820
:100050005903000859030008590300085903000810
:100060005903000859030008590300085903000800
:1000700059030008590300085903000859030008F0
:1000800059030008590300085903000859030008E0
:1000900059030008590300085903000859030008D0
:1000A0005903000859030008590300089D0D000872
:1000B000A90D0008B50D0008C10D0008590300087E
:1000C00059030008590300085903000859030008A0
:1000D00000000000590300085903000859030008F4
:1000E0005903000859030008590300085903000880
:1000F0005903000859030008590300085903000870
:1001000059030008C1A10008590300085903000859
:10011000590300085903000859030008590300084F
:1001200059030008590300085903000841B30008A7
:1001300059030008B1A40008590300085903000836
:10014000590300085903000859030008590300081F
:10015000590300085903000859030008590300080F
:100160005903000859030008D9BC000859030008C6
:1001700059030008590300085903000859030008EF
:1001800059030008590300085903000859030008DF
:1001900059030008590300085903000859030008CF
:1001A00059030008590300085903000859030008BF
:1001B00059030008590300085903000859030008AF
:1001C000590300085903000859030008590300089F
:1001D000590300085903000859030008590300088F
:1001E000590300085903000859030008590300087F
:1001F000590300085903000859030008590300086F
:1002000059030008590300085903000800000000C2
:100210000000000059030008000000005903000816
:10022000590300085903000859030008590300083E
:10023000590300085903000859030008590300082E
:1002400059030008590300085903000800F002F898
:1002500000F064F80AA090E8000C82448344AAF1FC
:100260000107DA4501D100F059F8AFF2090EBAE8FA
:100270000F0013F0010F18BFFB1A43F001031847DA
:10028000B8E40800D8E408000A444FF0000C10F865
:10029000013B13F0070408BF10F8014B1D1108BF04
:1002A00010F8015B641E05D010F8016B641E01F8A4
:1002B000016BF9D113F0080F1EBF10F8014BAD1CF4
:1002C0000C1B09D16D1E58BF01F801CBFAD505E012
:1002D00014F8016B01F8016B6D1EF9D59142D6D36C
:1002E000704700000023002400250026103A28BF94
:1002F00078C1FBD8520728BF30C148BF0B60704798
:10030000642900F03D81782900F076810020704753
:100310001FB572F021FE1FBD10B510BD00F006FC28
:100320001146FFF7F5FF60F035FB00F024FC03B445
:10033000FFF7F2FF03BC00F0E7FB00000A4880472C
:100340000A480047FEE7FEE7FEE7FEE7FEE7FEE7B6
:10035000FEE7FEE7FEE7FEE7FEE70000044805498A
:10036000054A064B7047000011A100084D02000825
:1003700008EB0220080B042008EB032008EB032005
:1003800053EA020C00F069802DE9F04B4FF00006B3
:10039000002B1FBFB3FA83F503FA05F424FA05F620
:1003A0005E4012BF1643B2FA82F502FA05F4C5F1B7
:1003B00020051EBF22FA05FC44EA0C04203556EA4B
:1003C000044C4FEA144418BF641C4FF000084FF06F
:1003D0000009904271EB030C39D3002919BFB1FA1F
:1003E00081F701FA07F6B0FA80F700FA07F6C7F1CD
:1003F00020071EBF20FA07FC46EA0C062037B6FB92
:10040000F4FCA7EB0507103F07F01F0BCBF120060C
:100410002CFA06F60CFA0BFB44BFB3460026202F3D
:10042000A4BF5E464FF0000B5BEA060C08BF4FF01E
:10043000010B19EB0B0948EB0608ABFB027C06FB32
:1004400002CC0BFB03CCC01B71EB0C01C1E70B46CC
:10045000024641464846BDE8F08B13B5084318BF35
:100460004FF0FF300146AFF30080BDE81C407047FD
:1004700053EA020C23D010B54C1084EA530404D57F
:100480004042C1F1000138BF491E1B4204D552420F
:10049000C3F1000338BF5B1EFFF772FF14F0804FFB
:1004A00004D04042C1F1000138BF491E14F0004F92
:1004B00004D05242C3F1000338BF5B1E10BD13B518
:1004C00040424FF0000070EB0104B8BF012001F082
:1004D000004100281CBF6FF000414FF0FF30AFF328
:1004E00000801CBD0FB41CB50C0007AA009001D001
:1004F0002044401E074B7B4469460190069800F05B
:10050000C6FA002C03D06946002000F0D3FA1CBCC8
:100510005DF814FBC50500002DE9F0410E460446C8
:10052000002020622046E168884730B3252805D0A6
:10053000D4E901219047206A401CF2E7E168204697
:1005400000278847050018D0A5F14100192802D8D6
:1005500020354FF400673246294620462760FFF7D2
:10056000CFFE40B1012804D0F61D26F0070608365C
:10057000D8E7361DD6E72846DAE7206ABDE8F081DD
:100580002DE9F0410646002410687529314616A56C
:1005900010D0AFF30080002802DA404213A507E034
:1005A00031688A0701D512A502E0490704D511A5D3
:1005B000012401E0AFF3008000210A2206F12407A4
:1005C00009E0B0FBF2FCB0FBF2F302FB1C003030A0
:1005D00078541846491C0028F3D123462A46304651
:1005E000BDE8F04100F0F5B9000000002D0000006A
:1005F0002B0000002000000070B504460D46214687
:100600001068AFF300802188090502D50F4A7A44AB
:1006100002E00E4A7A440E32002104F1240305E080
:1006200000F00F060009965D5E54491C0028F7D1C2
:1006300020780023000704D5702D02D009B10223D1
:1006400011322046BDE8704000F0C3B960290700B0
:100650000EB5054614460E4613A000F043FA284690
:1006600000F040FA16A000F03DFA304600F03AFAE9
:1006700015A000F037FA00218DF80B100A210DF1BA
:100680000A008DF80A1008E094FBF1F201FB124217
:1006900094FBF1F4303200F8012D002CF4DC00F072
:1006A00021FA00F014FA00002A2A2A2061737365E7
:1006B0007274696F6E206661696C65643A2000002F
:1006C0002C2066696C6520002C206C696E6520000A
:1006D00040EA010310B59B070FD1042A0DD310C8BF
:1006E00008C9121F9C42F8D020BA19BA884201D911
:1006F000012010BD4FF0FF3010BD1AB1D30703D059
:10070000521C07E0002010BD10F8013B11F8014B0E
:100710001B1B07D110F8013B11F8014B1B1B01D12A
:10072000921EF1D1184610BD40EA0103024630B5D1
:100730009B0710D14FF0013400E008C208C91D1B0F
:100740009D4315EAC41FF8D013F0FF0102F8011B06
:100750000DD01B0AF8E711F8013B002B02F8013B12
:1007600005D011F8013B002B02F8013BF3D130BD5D
:1007700010B5431C02E010F8011B71B18107FAD1DA
:100780004FF0013202C88C1A8C4314EAC211F9D01E
:10079000C01A0A0603D0C01E10BDC01A10BD0A043C
:1007A00001D0801E10BD0902FCD0401E10BD032ADE
:1007B00040F2308010F0030C00F0158011F8013B7E
:1007C000BCF1020F624498BF11F801CB00F8013B65
:1007D00038BF11F8013BA2F1040298BF00F801CB29
:1007E00038BF00F8013B11F0030300F02580083A00
:1007F000C0F0088051F8043B083A51F804CBA0E857
:100800000810F5E7121D5CBF51F8043B40F8043BAB
:10081000AFF30080D20724BF11F8013B11F801CBE0
:1008200048BF11F8012B24BF00F8013B00F801CBB1
:1008300048BF00F8012B704710B5203AC0F00B807C
:10084000B1E81850A0E81850B1E81850A0E81850C6
:10085000203ABFF4F5AF5FEA027C24BFB1E818503C
:10086000A0E8185044BF18C918C0BDE810405FEA9E
:10087000827C24BF51F8043B40F8043B08BF70471A
:10088000D20728BF31F8023B48BF11F8012B28BF1F
:1008900020F8023B48BF00F8012B704702F0FF032D
:1008A00043EA032242EA024200F00AB802F0FF03E0
:1008B00043EA032242EA024200F024B84FF0000269
:1008C0000429C0F0128010F0030C00F01B80CCF162
:1008D000040CBCF1020F18BF00F8012BA8BF20F8D0
:1008E000022BA1EB0C0100F00DB85FEAC17C24BF24
:1008F00000F8012B00F8012B48BF00F8012B7047CE
:100900004FF0000200B5134694469646203922BFA8
:10091000A0E80C50A0E80C50B1F12001BFF4F7AFF3
:10092000090728BFA0E80C5048BF0CC05DF804EBD5
:10093000890028BF40F8042B08BF704748BF20F843
:10094000022B11F0804F18BF00F8012B70470000F8
:1009500030B44FF0013C50F8042B51F8043BCCFA72
:1009600052F4D51A20D1FCB950F8042B51F8043BAD
:10097000CCFA52F4D51A17D1B4B950F8042B51F867
:10098000043BCCFA52F4D51A0ED16CB950F8042BB2
:1009900051F8043BCCFA52F4D51A05D1002CDAD028
:1009A00030BC4FF00000704729BAB1FA81F111F064
:1009B0001801D1F120008440F2D1CA40CB4012F09E
:1009C000FF0213F0FF0330BCD01A70477047704726
:1009D00070472DE9F0470D4699469246044600F1CE
:1009E00024080168880604D5E06921F0100121601F
:1009F00000E00120A84201DD471B00E00027A169BB
:100A00007A1902EB0900081AA0612078C00602D406
:100A10002046AFF30080002608E0D4E901211AF84F
:100A200006009047206A401C761C20624E45F4DB8D
:100A30002078C0060AD52046AFF3008006E0D4E94E
:100A4000012130209047206A401C2062381EA7F107
:100A50000107F4DC07E0D4E9012118F8050090470C
:100A6000206A401C2062281EA5F10105F3DC204607
:100A7000AFF300802078000602D50220BDE8F087A1
:100A80000120FBE701694A1C02610878704700B544
:100A90008FB0CDE901310021059105497944CDE9B7
:100AA000031011466846FFF737FD0FB000BD000088
:100AB000E5FFFFFF0A6802F8010B0A607047D1E901
:100AC00000239A4202D2531C0B601070704710B57D
:100AD000002000F023F8FFF71FFCBDE810400120C4
:100AE00000F012B810B5044602E0641C00F004F8EF
:100AF00020780028F9D110BD08B569468DF80000AE
:100B00000320ABBE08BD000001491820ABBEFEE7C4
:100B10002600020000487047E001002010B500F0F8
:100B200039F8BDE8104000F02FB870477546FFF760
:100B3000F1FFAE4605006946534620F007008546A2
:100B400018B020B5FFF70AFCBDE820404FF00006C2
:100B50004FF000074FF000084FF0000BAC46ACE838
:100B6000C009ACE8C009ACE8C009ACE8C00921F094
:100B700007018D46704710B50446AFF3008020464C
:100B8000BDE81040FFF7D3BB002801D0FFF7BCBF82
:100B90007047000010B5002102A000F013F80120FA
:100BA00010BD0000534947414252543A2041626E01
:100BB0006F726D616C207465726D696E6174696FBE
:100BC0006E00000070B505460C460A2000E06D1C62
:100BD000FFF792FF35B128780028F8D102E0641CB5
:100BE000FFF78AFF14B120780028F8D1BDE87040E3
:100BF0000A20FFF781BF0000FEE7000070470000F9
:100C0000F0B581B04FF478414FF4FC6201EA102155
:100C100002EA5012C0F3850011441043090A41EA68
:100C2000002040F25C25C2F20005ADF80200D5E9D3
:100C30000101421E00204B1E002108F0CBF908F0F4
:100C4000BFF96868D0B1A968C1B1002601210DF1D2
:100C5000020403E00021013686420FD20029F9D0B8
:100C6000002700BF2046022108F002FBA9680137D7
:100C70008F42F7D3686801368642EFD301B0F0BDEA
:100C80002DE9F04F83B00546581A00F1010A2846B5
:100C9000904608F09FF908F093F9BAF1000F64D07C
:100CA000A8EB05000C9C029001304FEA400B55D098
:100CB0004FEA4801A1EB450100F0030920F00305CC
:100CC000881C4FF0000801900AE000BF20465946FA
:100CD00008F0CEFA019808F10108D045044444D048
:100CE0000298032802D200201CE000BF00206FF011
:100CF000010100BF6218538804EB40061BBA1B0CAD
:100D000053807388B7881BBA1B0C73803BBA1B0CCB
:100D1000B380138904301BBA1B0C854201F1080112
:100D20001381E7D1B9F1000FD0D034F81010B9F128
:100D3000010F09BA4FEA114124F81010C6D004EB94
:100D40004000B9F1020F418809BA4FEA11414180D0
:100D5000BCD0818809BA090C8180B7E72046594682
:100D600008F086FABAF1010AF8D103B0BDE8F08FB5
:100D700080B5012070F0FAFA40F25C22C2F2000263
:100D800002F1080142F8040B1046BDE8804006F06D
:100D900021BF000072B600BFFEE7000040F69400DD
:100DA000C2F2000000F0BCB940F60C10C2F2000024
:100DB00000F0B6B940F68410C2F2000000F0B0B9FD
:100DC00040F6FC10C2F2000000F0AAB9B0B540F243
:100DD0002014C2F2000421680546FFF7B9FD98B15E
:100DE00040F2A814C2F2000421682846FFF7B0FDC3
:100DF00050B140F2C014C2F2000421682846FFF747
:100E0000A7FD002818BF00242046B0BD80B50028EB
:100E100056D0436F002B53D090F85410D0F800E018
:100E20000129DEF814C004D002294BD11CF4803112
:100E300048D090F8541001293AD190F84C1001296B
:100E40004FF0020144D0012280F84C2080F8541069
:100E50001973002181651961DEF8141041F4BA415B
:100E6000CEF81410416E29B1DEF8141041F400716F
:100E7000CEF81410006F28B1DEF8140040F40050D2
:100E8000CEF8140018680022016ACFF60102490862
:100E900061F3596261F39A624FF6FF7120EA010132
:100EA000CEF800104FF6FC7108401044CEF87C00DC
:100EB000DEF8140040F00100CEF81400002080BDE0
:100EC000012080BD40218165002180F84C10012166
:100ED000084680BDB0B5044600F084FE002C04BF77
:100EE0000120B0BD054694F8540002282ED1216897
:100EF000486940F004004861052084F854000869FE
:100F0000800408D400F06EFE401B052826D8216816
:100F100008698004F6D54869012240F00200486162
:100F2000042084F854004FF4FE40C86084F8542034
:100F300094F8500000064FF0000002D5636F1A735A
:100F40008864002184F84C10B0BD00BF2020A0654B
:100F50000120002184F84C10B0BD00BFA06D40F00E
:100F60001000A065032084F8540094F85000000697
:100F70004FF0010044BF616F0873002184F84C10EA
:100F8000B0BD0000002804BF0120704790F8541045
:100F900002290BD1042180F85410006842F20402A7
:100FA0004169114341610020704700BF20218165E4
:100FB00001207047024600284FF0010008BF70472B
:100FC000CB065CBF00207047136840F6FF7223EA2F
:100FD000020203F57B63C3F3C41301F0110111296D
:100FE00000FA03F004D151680843506000207047B4
:100FF000516821EA000050600020704770B5044637
:1010000000F0F0FD002C4CD026680546706940F0D9
:10101000060070617069C007304608D000F0E2FD3C
:10102000401B052838D820684169C907F6D140F22D
:101030004F3240F6FF71C5F2020226EA01019042EA
:101040004FF0000202604261026442648264C26442
:101050000265C26710DC41F24F32C4F202029042D4
:1010600022DC40F25032C4F20202904234D040F20C
:10107000D032C4F202022DE041F24F32C5F2020238
:1010800090421DDC40F25032C5F20202904223D061
:1010900040F2D0321CE000BF1020A065032084F88D
:1010A0005400012070BD00BF41F25032C4F2020270
:1010B000904211D041F2D032C4F202020AE000BFE5
:1010C00041F2D032C5F20202904205D041F25032D4
:1010D000C5F20202904202D100224265826500F50B
:1010E0007B62C2F3C41201234E6803FA02F226EABD
:1010F00002024A604FF4FE41C160E16D0020C4E984
:101100001800C4E91A0020670029606718BFE0656D
:101110002065A06584F8540084F84C0070BD000080
:1011200010B5044600680C22034600F57B6162F3AB
:101130000B03C1F3C4111A6822FA01F1C90700F0C8
:10114000CB800169490544BF41695FEA415143D4FD
:101150000169090544BF41695FEA015144D401694D
:10116000C90444BF41695FEAC14145D401694904EA
:1011700044BF41695FEA414146D40169890544BFE2
:1011800041695FEA815147D40169890444BF4169DB
:101190005FEA81414AD40169C90544BF41695FEAF8
:1011A000C15169D4A06D002800F096802068416983
:1011B00041F002014161012084F8540094F850107C
:1011C000090644BF616F0873A16E0020002984F8EE
:1011D0004C004CD180E000BF4FF48061C160A16D34
:1011E00041F00101A165B3E74FF40061C160A16D59
:1011F00041F00201A165B2E74FF48051C160A16DD9
:1012000041F00401A165B1E74FF48041C160A16DD7
:1012100041F00801A165B0E74FF40071C160616E53
:101220000029B1D0204688472068ADE74FF400512F
:10123000C16094F8541004292AD1416921F4005165
:101240004161416941F002014161012184F854107A
:1012500094F85020120603D5626F11730021816447
:10126000E16E0020002984F84C0008BF10BD204624
:10127000BDE81040084700BF94F85010090613D489
:10128000816C002904BF012184F8541015E000BFCF
:10129000052184F85410216F00293FF47CAF2046CB
:1012A0008847206877E700BFC16F31B9816C21B9E9
:1012B000012184F85410626F11734FF44071C160C2
:1012C000216E0020002984F84C001CBF204688476E
:1012D000A06D00287FF46AAF10BD000070B5044611
:1012E00000F080FC002C04BF012070BD00210546E9
:1012F000206884F84C10022184F85410416941F0B0
:10130000060141614169C90709D000BF00F06AFCCC
:10131000401B052854D820684169C907F6D1216AC5
:10132000426904F1100522F4430211434161E3696B
:1013300026CD1A4340F24F0E1143C5F2020E40F281
:101340004F3C704541EA0503C5F2020C1CDC41F23A
:101350004F05C4F20205A8423ADC40F24F25C4F220
:101360000205A84262DC40F24F15C4F20205A84211
:1013700000F39C805025C4F20205A84200F0F080E2
:10138000D025C4F20205E9E041F24F05C5F202059D
:10139000A84235DC40F24F25C5F20205A84257DCD1
:1013A00040F24F15C5F20205A84200F38B8050258C
:1013B000C5F20205A84200F0D380D025CCE000BFE2
:1013C000012003221021A16584F8542070BD00BFC4
:1013D00041F24F25C4F20205A84245DC41F24F1507
:1013E000C4F20205A84277DC41F25005C4F20205BE
:1013F000A84200F0B58041F2D005C4F20205ADE08C
:1014000041F24F25C5F20205A8423FDC41F24F15DB
:10141000C5F20205A8426BDC41F25005C5F2020597
:10142000A84200F09D8041F2D00595E040F24F3592
:10143000C4F20205A84265DC40F25025C4F2020560
:10144000A84200F08D8040F2D025C4F2020585E06C
:10145000604563DC40F25025C5F20205A84200F069
:101460007F8040F2D02577E041F24F35C4F202058B
:10147000A8425DDC41F25025C4F20205A8426FD0BB
:1014800041F2D025C4F2020568E000BF41F24F35B9
:10149000C5F20205A84257DC41F25025C5F202050B
:1014A000A8425DD041F2D02556E000BF40F2501571
:1014B000C4F20205A84253D040F2D015C4F202058E
:1014C0004CE000BF40F25015C5F20205A84247D0DB
:1014D00040F2D01540E000BF41F25015C4F20205C1
:1014E000A8423DD041F2D015C4F2020536E000BF5B
:1014F00041F25015C5F20205A84231D041F2D01593
:101500002AE000BF40F25035C4F20205A84227D0BD
:1015100040F2D035C4F2020520E000BF40F2503561
:10152000C5F20205A8421BD040F2D03514E000BF3E
:1015300041F25035C4F20205A84211D041F2D03533
:10154000C4F202050AE000BF41F2D035C5F202053F
:10155000A84205D041F25035C5F20205A84212D189
:10156000D4E909514FF07C76E26A06EB01514FF461
:101570007C7606EB051501F07C711A4305F47C7549
:10158000114341EA0503016C01F080211943016414
:10159000A1682279E5681143226BB5F5007F41EA25
:1015A000020323D0B5F5806F40F00E81704521DC39
:1015B00041F24F01C4F20201884237DC40F24F2170
:1015C000C4F2020188425FDC40F24F11C4F2020112
:1015D000884200F399805021C4F20201884200F051
:1015E000F180D021C4F20201E6E000BF43F40073B1
:1015F000EAE000BF41F24F01C5F2020188422DDC52
:1016000040F24F21C5F2020188424FDC40F24F11F7
:10161000C5F20201884200F383805021C5F2020125
:10162000884200F0CF80D021C4E000BF41F24F21BA
:10163000C4F20201884245DC41F24F11C4F20201BA
:10164000884277DC41F25001C4F20201884200F086
:10165000B98041F2D001C4F20201ADE041F24F2164
:10166000C5F2020188423FDC41F24F11C5F202018E
:1016700088426BDC41F25001C5F20201884200F061
:10168000A18041F2D00195E040F24F31C4F2020155
:10169000884265DC40F25021C4F20201884200F029
:1016A000918040F2D021C4F2020185E0604563DC04
:1016B00040F25021C5F20201884200F0838040F2DE
:1016C000D02177E041F24F31C4F2020188425DDC63
:1016D00041F25021C4F20201884273D041F2D0217C
:1016E000C4F2020168E000BF41F24F31C5F20201CD
:1016F000884257DC41F25021C5F20201884261D094
:1017000041F2D02156E000BF40F25011C4F2020174
:10171000884257D040F2D011C4F202014CE000BF21
:1017200040F25011C5F2020188424BD040F2D01174
:1017300040E000BF41F25011C4F20201884241D0A2
:1017400041F2D011C4F2020136E000BF41F2501163
:10175000C5F20201884235D041F2D0112AE000BF23
:1017600040F25031C4F2020188422BD040F2D03115
:10177000C4F2020120E000BF40F25031C5F2020184
:1017800088421FD040F2D03114E000BF41F2503106
:10179000C4F20201884215D041F2D031C4F20201F4
:1017A0000AE000BF41F2D031C5F20201884209D0FF
:1017B00041F25031C5F20201884208BF43F4806310
:1017C00002E000BF43F48063626B416C42F200169A
:1017D000C3F6C046134331401943416400216045BC
:1017E000816411DC41F24F31C4F2020188421BDCFA
:1017F00040F25031C4F2020188422DD040F2D03183
:10180000C4F2020126E000BF41F24F31C5F20201ED
:10181000884215DC40F25031C5F2020188421BD0EB
:1018200040F2D03114E000BF41F25031C4F2020165
:10183000884211D041F2D031C4F202010AE000BF67
:1018400041F2D031C5F20201884205D041F2503157
:10185000C5F20201884202D1002141658165002163
:10186000C167226501220020A16584F8542070BD63
:1018700010B500284DD090F84CC0BCF1010F04BF4A
:10188000022010BD4FF0010C80F84CC090F854C0FD
:10189000BCF1010F38D14FF0020C80F854C04FF06A
:1018A000000CC0F858C0D0F800C0D0F864E0DCF8F4
:1018B0004840BEF1000FC3EA0403CCF848304FF4AF
:1018C000FE43CCF80C30CCF84C10CCF85020DCF8AF
:1018D000141041F4BA41CCF8141005D0DCF81410FF
:1018E00041F40071CCF81410006F28B1DCF814003A
:1018F00040F40050CCF81400DCF8140040F0010073
:10190000CCF81400002010BD40218165002180F832
:101910004C10012010BD0000B0B5044600F062F983
:10192000054640F20000C2F200000078611C18BFBA
:10193000044400BF00F056F9401BA042FAD3B0BDEA
:101940002DE9F04F82B0002974D047F67F72C0F2C3
:101950002F0202EA90220023002600270125009290
:10196000019129E001680322B240114301606FF048
:10197000030101EA540103F01C0C0144D1F820805A
:101980000F2404FA0CF428EA04040C6281689143E1
:101990008160416821EA0E014160C1689143C160E4
:1019A000019931FA05F205F1010507F1080706F181
:1019B000020603F104033DD06C1E012202FA04FE6C
:1019C0001EEA0109EDD042F20001C4F202414FEAE1
:1019D000940801F1600C0F225CF828A007F0180BA6
:1019E00002FA0BF10AEA01028A46009901FA0BF1A8
:1019F0008A42B7D142F20002C4F20242D2F8801009
:101A000021EA0901C2F88010D2F8841021EA090104
:101A1000C2F88410116821EA09011160516821EAB5
:101A2000090151605CF8281021EA0A014CF82810DD
:101A300098E700BF02B0BDE8F08F00002DE9F04F3D
:101A400082B00C68002C00F0C38047F67F72C0F2B1
:101A50002F0202EA90224FF0010900920022002694
:101A60000027012501900FE0BCF1030F5FD100BFFB
:101A70000C68083734FA05F305F1010506F1020692
:101A800002F1040200F0A480A5F1010A09FA0AFE9D
:101A900014EA0E0BECD0D1F804C04CF01004122C58
:101AA0001FD16FF0030303EA5A0402F01C0300EB9A
:101AB0000409D9F820C05846D1F810B00F2404FA10
:101AC00003F80BF00F042CEA080C04FA03F343EAC2
:101AD0000C0383460198C9F82030D1F804C04FF0B8
:101AE000010903680324B4406FEA0408A3430CF01F
:101AF0000304B4402343BCF1120F036017D809FA62
:101B00000CF313F0061FAFD08368CC6803EA080318
:101B1000B4402343836043684FEA1C1423EA0E0356
:101B200004FA0AF42343BCF1030F4360A0D0C36856
:101B30008C6803EA0803B44023435FEACC04C36023
:101B400096D542F200082AF00303C4F2024808EBDB
:101B5000030EDEF860C007F018040F23A3402CEA40
:101B6000030C009B03FA04F44CEA0403CEF8603043
:101B7000D8F800C0D1F804E04CEA0B035FEACE24A9
:101B800058BF2CEA0B03C8F80030D8F804C05FEA4D
:101B90008E234CEA0B0458BF2CEA0B04C8F804400F
:101BA000D8F884C05FEA8E334CEA0B0458BF2CEAA5
:101BB0000B04C8F88440D8F880C05FEACE334CEA02
:101BC0000B0458BF2CEA0B04C8F8804050E700BF54
:101BD00002B0BDE8F08F00001823002A08BF2823B8
:101BE000C15070474AF2E810C2F202000068704724
:101BF00040F20041C4F203010A68D2071CBF012071
:101C000070470A6822F00402104308600020704701
:101C100040F20041C4F20301086840F001020020D4
:101C20000A60704740F200004AF2E811C2F2000078
:101C3000C2F2020100780A68104408607047000090
:101C400080B5032000F0D0F803F03EFF40F62041BD
:101C5000C4F20241096842F6A87201F00F01C0F611
:101C60000702515CC84040F26001C2F20001086006
:101C7000042004F057FE0F2000F008F800281CBFD5
:101C8000012080BD00F05AF8002080BDB0B588B0BA
:101C900040F69C41C4F202410A68044642F0100238
:101CA0000A60096802A801F010010291029901A9D5
:101CB00003F064FE059D002D18BF012503F098FE7A
:101CC000A84045F6C5214009C0F67C21A0FB0101D2
:101CD0004FF0FF3000EBD11140F6E45041F2000329
:101CE000C2F200006322C4F200030025C0E9003103
:101CF000C0E90252056104F06BFE0546B8B940F632
:101D0000E450C2F2000004F097FE054678B90F2CAB
:101D10000CD8312021460022002500F039F840F28D
:101D20000400C2F20000046001E000BF0125312080
:101D300000F01EF8284608B0B0BD00006FF00100AA
:101D40000F21002200F024B8002848BF704700F09F
:101D50001F01012202FA01F14EF280124009CEF277
:101D6000000242F82010BFF34F8FBFF36F8F704710
:101D7000002848BF704700F01F01012202FA01F15C
:101D80004EF200124009CEF2000242F820107047D5
:101D900010B54EF60C5CCEF2000CDCF80030C3F34C
:101DA000022E8EF00704042C28BF0424BEF1030386
:101DB0004FF0FF3E38BF00230EFA04F4A1439940D0
:101DC0000EFA03F39A4300F00F03043B11436344FC
:101DD00009010C3300F16042B0F1FF3FC8BF02F5CA
:101DE0006443197010BD00004EF60C51CEF2000194
:101DF0000A684FF6FF031A4060F30A2242F080603F
:101E000040F0FD700860704701220168C0F8D422DC
:101E1000002280F8CC22486D40F001004865486DF2
:101E200040F0020200204A65704700007047000041
:101E300080B501F0070C0CEB8C0C01EB810E00EB74
:101E4000CC0C09060CF1140C00EBCE0058BF00F5C9
:101E5000AA7C3AB10121CCF8083000208CF80C1093
:101E600080BD00BFACF80630002100208CF80C10BB
:101E700080BD0000F0B581B040F68C02C2F20002D5
:101E8000126811F00F03D26903EB4303044602EB1F
:101E9000830303F1700608BF161D356881B1AA6E71
:101EA000686C002A18BF00282AD100216965022128
:101EB00029637168A86441F0080070601EE000BFEB
:101EC000307A01281AD1AF6B20460021002200236E
:101ED00000F04CF9E86CF96988421BD92A6C431A66
:101EE0008B4288BF0B460A44C61A397D2A642046B5
:101EF000EE6401B0BDE8F04000F082B901B0F0BD81
:101F00000020A866E86420460022002300F078F94B
:101F100001B0F0BDA86E01280AD1397D204600220B
:101F20000023002400F06CF9AC6601B0F0BD00BFE6
:101F30000020696C686502202863A9647068E96DF7
:101F400040F00800002970601CBF05F13000884790
:101F50000420307201B0F0BDF0B581B040F68C02C3
:101F6000C2F20002126801F00F03D26903EB4303CF
:101F700002EB83060446756861B1204600F0C0F8A4
:101F8000A8640020B16868650220286341F0080059
:101F9000B0601DE0307B02281AD1AF6B20460021D3
:101FA00000F0AEF80346D5E9111018448842A86441
:101FB00010D927206865B068E96D40F00800B0606E
:101FC00031B105F1300001B0BDE8F040084700BF75
:101FD00001B0F0BD0CD0F869834209D1286C397D7D
:101FE000C21820462A6401B0BDE8F04000F0BEB837
:101FF000B06840F44070B06001B0F0BD01F007027D
:1020000002EB8202090600EBC203006803F114022E
:1020100058BF03F5AA7211460AF046BC10B5044633
:10202000080601F0070000EB800104EBC10205D4B3
:1020300002F5AA71002382F8553103E0012302F171
:102040001401537594F894220870012A04BF0220E9
:1020500010BD2068012284F8942209F043FE00207C
:1020600084F8940210BD0000B0B50446007901F078
:102070000F02824284BF0120B0BD080601F00700B4
:1020800000EB800104EBC10206D402F5AA71002323
:1020900082F8553104E000BF012302F114015375A9
:1020A00094F894220025012A8D70087004BF022044
:1020B000B0BD2068012284F8942209F0D5FE28469C
:1020C00084F89452B0BD000010B5044690F8940214
:1020D000012804BF022010BD206801220B0684F8ED
:1020E000942205D40AF020FC002084F8940210BD4C
:1020F00001F007010AF01AFC002084F8940210BDD8
:1021000001F0070101EB810100EBC100D0F8700183
:1021100070470000B0B50546080601F0070000EB67
:10212000800105EBC10C05D40CF5AA7100248CF8D4
:10213000554104E001240CF114018CF8154008709D
:102140000A61022BCB7004BF0020087195F894023D
:10215000012804BF0220B0BD2868012285F894221E
:1021600009F084FC002085F89402B0BD10B501F0A0
:10217000070C0CEB8C01002400EBC10E00680EF57F
:10218000AA71CEF86821CEF86C31CEF870418EF885
:1021900055418EF854C109F0C9FE002010BD000061
:1021A00010B50279044601F00700904284BF012077
:1021B00010BD0A060AD401EB8101002304EBC10221
:1021C00002F5AA7182F8553108E000BF00EB8001EA
:1021D000012304EBC10202F11401537594F8943207
:1021E0000122012B8A70087004BF022010BD2068F4
:1021F00084F8942209F080FE002084F8940210BD37
:1022000080B501F0070C0CEB8C014FF0000E00EBD9
:10221000C101006801F814CF4FF0010C01F114075F
:1022200081F824C087E80C400B6281F801C009F0F6
:102230007DFE002080BD00002DE9F04F83B00446F4
:1022400000680AF075FB01041AD4410528D4410442
:1022500036D4810446D4C10448D4010500F1D884A1
:10226000010600F1E584810500F1F284C00524D562
:1022700020684FF6FF62416C114041641DE000BFD1
:102280002068416C090418D546F2004B40F60F7ADD
:1022900004F52771C4F2010BC0F2FF7A019167E0E7
:1022A00020684FF6FF32416C11404164204600F037
:1022B00039FE94F89402012806D103B0BDE8F08FEE
:1022C00020684BF6FF722BE00120002584F8940271
:1022D0006574206800210AF095FB84F8945203B0DD
:1022E000BDE8F08F20684DF6FF7219E02068016CA0
:1022F00021F004010164016C21F00801016494F8EB
:10230000CC02012806D1002084F8CC02204600210E
:10231000FFF78CFD204600F019FE20684EF6FF7294
:10232000416C1140416403B0BDE8F08F5BF831307F
:102330009BB24BF831305BF8313043EA0E434BF837
:102340003130928B1FFA8EF361460AF061FB2068F0
:1023500031780AF1300350F821201A4048F2B003D6
:102360005A4040F8212000BF2068416C0904A4D5E0
:10237000426C12F00F095DD050F829805FEA0841E5
:1023800040F1028250F8291009EB890201EA0A01A2
:1023900041F0800104EBC20540F8291095F8601166
:1023A00005F5AA76002900F0CF8095F8571102298B
:1023B00040F0F28031785FEA484200F151810A2210
:1023C0000292029AAAB100BF029A013A0292029ABC
:1023D0007AB1029A013A0292029A52B1029A013AF1
:1023E0000292029A2AB1029A013A0292029A002AB1
:1023F000EAD10BEBC10200235268C2F30947D5F8BA
:102400006C21D21B38BF1A46C5F86C2140F274818A
:102410005FEA486200F17E8150F8212048F2C00353
:1024200002EA0A021A4340F82120002F40F073818B
:1024300096E100BF0168D20622D401EA0A0141F404
:1024400000410160207D5BF83000A16AC0F30940C3
:1024500020630844A06220460021FFF70BFD607C4A
:1024600000283FF481AFE06A00287FF47DAF607CF4
:10247000216840F08000C8640020607474E700BFE9
:102480000A0500F1BB8009047FF56EAF01680A22DE
:1024900001EA0A0141F08001016094F854110292AE
:1024A000029AA2B1029A013A0292029A7AB1029A6F
:1024B000013A0292029A52B1029A013A0292029AA7
:1024C0002AB1029A013A0292029A002AEAD10BEB4F
:1024D000C1014968C1F30943C4F8703193B1D4F81C
:1024E000681179B1B4F85A210AF024FAD4F86801D5
:1024F000D4F870110844C4F8680120460021FFF7A1
:102500002BFD206801680A053FF52EAF01F440510C
:10251000B1F5405F3FF428AFDBF8041021F07C41B7
:10252000CBF80410D4F86411002900F09D823E29F4
:1025300000F29E8201F0010202EB5101DBF804205F
:1025400042EA8161A1E200BF31780A220292029A36
:10255000AAB100BF029A013A0292029A7AB1029A93
:10256000013A0292029A52B1029A013A0292029AF6
:102570002AB1029A013A0292029A002AEAD10BEB9E
:10258000C1014968C1F30947002F00F0E980D5F87F
:102590006811B5F85A21DEE0317848F2C00350F8EE
:1025A000212002EA0A021A4340F8212050F8212093
:1025B000520400F181800A220292029AAAB100BF5D
:1025C000029A013A0292029A7AB1029A013A02926E
:1025D000029A52B1029A013A0292029A2AB1029ADE
:1025E000013A0292029A002AEAD10BEBC101496832
:1025F000C1F30947002F40F08E80B1E094F85411E8
:102600000A220292029AA2B1029A013A0292029A14
:102610007AB1029A013A0292029A52B1029A013AAE
:102620000292029A2AB1029A013A0292029A002A6E
:10263000EAD10BEBC1014968B4F85A21C1F309434F
:102640000199C4F870310AF075F92068016801EA4F
:102650000A0141F080010160204600F0A3FC83E6FE
:102660000A220292029AA2B1029A013A0292029AB4
:102670007AB1029A013A0292029A52B1029A013A4E
:102680000292029A2AB1029A013A0292029A002A0E
:10269000EAD15BF831200023C2F30947D5F86C2159
:1026A000D21B38BF1A46C5F86C2139D95FEA486297
:1026B00043D4002F4BD153E00A220292029AA2B1D6
:1026C000029A013A0292029A7AB1029A013A02926D
:1026D000029A52B1029A013A0292029A2AB1029ADD
:1026E000013A0292029A002AEAD15BF83110C1F352
:1026F000094767BB34E000BF50F821200AF540537A
:102700001A404AF280035A4040F821205FEA4862AA
:102710007FF582AE27B3D5F86811B5F85E211AE0CF
:1027200050F821200AF540531A404AF280035A40DB
:1027300040F821205FEA4862BBD550F8212048F2DA
:10274000C00302EA0A021A4340F8212047B1D5F833
:102750006811B5F85C213B460AF0ECF801E000BFD7
:102760000027D5E95A02D5F8701138443944C5F824
:102770007011C5F868011AB1D5F86401B84251D991
:1027800031782046FFF7E8FB5FEA08607FF5ECADA3
:10279000206809EB890150F8293004EBC10203EAF3
:1027A0000A0141F4004140F82910D17D02F11406DC
:1027B00001291DD192F8200000284FF00000D062BE
:1027C00000F04C81507D5FEA486100F1998001285A
:1027D00000F03081002840F0418130780BEBC000E0
:1027E000416821F07C414160416841F0004128E1AD
:1027F0005FEAC85120D4317800255BF83130D76AC0
:10280000C3F30943FF1A38BF2F46D76240F227812E
:10281000916A176B19449162F9181163314609F0F6
:1028200085FBA1E52068314609F080FB5FEA08607E
:102830007FF59AADACE700BF31785FEA486371D4A9
:102840000A230293029BA3B1029B013B0293029BCA
:102850007BB1029B013B0293029B53B1029B013B64
:102860000293029B2BB1029B013B0293029B002B24
:10287000EAD10BEBC10E00255EF8043FC3F3094714
:10288000D36ADB1B38BF2B46D36240F29B805FEAE2
:10289000484308D450F821304CF2800503EA0A037B
:1028A0002B4340F82130154615F8381F01297FF4D5
:1028B0004EAD134653F8348F53E904C153F8049CCA
:1028C000E045B944394443F80C1C43F8049C80F0BB
:1028D0002781B8F1000F00F063810027C4461F6014
:1028E0002F70537D012B40F02281DEF800309BB227
:1028F000CEF80030DEF8003043EA0C436FE100BF51
:10290000012800F0A180002840F0A88030785BF812
:10291000301021F07C414BF830105BF8301041F062
:10292000004199E00A230293029BA3B1029B013B61
:102930000293029B7BB1029B013B0293029B53B12A
:10294000029B013B0293029B2BB1029B013B029332
:10295000029B002BEAD15BF83130D76AC3F30943FD
:102960000025FF1A38BF2F46D76247D95FEA48478C
:1029700008D550F821704CF2800507EA0A072F436A
:1029800040F82170154615F8387F012F7FF4DFAC31
:10299000174657F834EF57E9049C57F8048CCE4596
:1029A00098449C4447F80CCC47F8048C80F0D680BF
:1029B0004FF00008BEF1000F85F8008040F0D18094
:1029C0009E46D0E0507D01286CD000287CD15BF879
:1029D000310020F07C404BF831005BF8310040F0D2
:1029E00000404BF83100DEF8000020F07C40CEF8CB
:1029F0000000DEF8000040F0004063E0507D012858
:102A00006AD0002878D15BF831000BEBC10220F0CE
:102A10007C404BF831005BF8310040F000404BF84F
:102A20003100506820F07C405060506840F0004019
:102A300061E000BF30780BEBC000416889B24160B3
:102A4000416841600AE000BF30785BF8301089B21D
:102A50004BF830105BF830104BF8301031782046CE
:102A6000FFF708FAFFF780BCDBF804100BE000BFAB
:102A70004A09CB064FF0FF3308BF03EB5112DBF8D6
:102A8000041041EA826141F00041CBF80410016872
:102A90000AF5405211404BF2800251400160FFF7AD
:102AA00063BC00BF5BF8310080B24BF831005BF8CB
:102AB00031004BF83100DEF8000080B2CEF80000A3
:102AC000DEF80000CEF800002046FFF7D3F95FEAF9
:102AD000484018D5FFF73BBC5BF831000BEBC10257
:102AE00080B24BF831005BF831004BF83100506890
:102AF00080B25060506850602046FFF7BBF95FEA33
:102B000048407FF524AC206831784CF2800350F8BF
:102B1000212002EA0A021A4340F82120FFF717BCDD
:102B2000A8EB0C051D60537D012B3FF4DEAE002B9E
:102B300057D1DEF80030BCF1000F23F07C43CEF813
:102B4000003035D0BCF13E0F3AD80CF0010303EB56
:102B50005C03DEF8005045EA836340E0AEEB090811
:102B6000CE46C7F80080537D012B3FF4DFAB002B2E
:102B70007FF4E7AB5BF83130BEF1000F23F07C430C
:102B80004BF8313018D0BEF13E0F2FD80EF00103B4
:102B900003EB5E035BF8315045EA8363FFF7CFBB7D
:102BA00000232B70BC46537D012BC0D19DE600BF96
:102BB000DEF8003011E000BF5BF8313023E000BFE9
:102BC0005FEACC654FEA5C134FF0FF3508BF05EBB9
:102BD0005C13DEF8005045EA836343F00043CEF80F
:102BE0000030D28B1FFA8CF3FFF7AFBB5FEACE65E4
:102BF0004FEA5E134FF0FF3508BF05EB5E135BF83D
:102C0000315045EA836343F00043FFF798BB00BFB0
:102C100021684FF2FF72086C40F008000864486CAD
:102C200010404864086C40F0040220460A6409E041
:102C300020684FF67F72416C1140416494F8CC12C9
:102C400091B1204603B0BDE8F04F00F025BA00BFB7
:102C500021684FF6FF52486C024020464A6403B098
:102C6000BDE8F04F00F07EB9016C41F00401016451
:102C7000016C41F008010164012184F8CC12406D1F
:102C80003C2101EA900220460121C4F8D02203B081
:102C9000BDE8F04FFFF7CAB8F0B581B0002800F0EA
:102CA0000781044690F8950228B9002084F8940220
:102CB000204600F001F9032084F89502206809F00D
:102CC000C9F82179002900F0DF80A1F1010E01F09F
:102CD000030CBEF1030F4FF0000335D301F0FC00ED
:102CE00004F1A402012600256F1C02F8687CAF1CC9
:102CF00002F8905C02F8407CEF1C043502F88F6CFF
:102D000002F88D3C42E9203342F8783C02F8676CC7
:102D100002F8653C42E9163342F8503C02F83F6C39
:102D200002F83D3C42E90C3342F8283C02F8176CAB
:102D300002F8187C02F8153C42E902331360A842FD
:102D400002F1A002D0D12B46BCF1000F29D003EB39
:102D50008300012204EBC0050020BCF1010F6A755D
:102D60002B75E875C5E90900E8621AD05D1C05EB12
:102D70008506BCF1020F04EBC60672753575F07559
:102D8000C6E90900F0620CD0981C00EB8002012318
:102D900004EBC202107500205375D075C2E909001A
:102DA000D062BEF1030F4FF0000235D301F0FC00FA
:102DB00004F5F271002300BF5F1C01F8687C9F1CC2
:102DC00001F8903C01F8407CDF1C043301F88F2CA3
:102DD00001F88D2C41E9202241F8782C01F8672C6C
:102DE00001F8652C41E9162241F8502C01F83F2CDE
:102DF00001F83D2C41E90C2241F8282C01F8172C50
:102E000001F8187C01F8152C41E902220A60984269
:102E100001F1A001D0D11A46BCF1000F34D002EB71
:102E20008200BCF1010F04EBC0014FF0000081F8FB
:102E3000550181F8542181F85701C1E95900C1F8C1
:102E40006C0121D0511C01EB8103BCF1020F04EB9A
:102E5000C30383F8550183F8541183F85701C3E97C
:102E60005900C3F86C010FD0901C00EB80010022C8
:102E700004EBC10181F8552181F8540181F85721F3
:102E8000C1E95922C1F86C2194E80F00277C009712
:102E900008F0D0FF00200121607484F89512217B96
:102EA000012903D12046FEF7AFFF002001B0F0BD9D
:102EB000012001B0F0BD000010B5C4B0044602A866
:102EC00008304FF48071FDF71BFD206846F20001C9
:102ED000C4F20101884201D044B010BD102003901B
:102EE000002002903020429002A801F09FFB0028B1
:102EF00018BFFDF74FFF40F6A440C4F2024001683E
:102F0000002241F0807101600068052100F08070AE
:102F1000019001984A20FEF73BFF4A20FEF728FF68
:102F200044B010BDB0B540F68C04C2F20004206875
:102F3000406A002818BF0CF089FD20680125C0F800
:102F40008C510BF0D9F920684562B0BD40F68C0079
:102F5000C2F200000068D0F8B011002908BF704725
:102F6000F320084740F68C00C2F200000068D0F859
:102F7000B011002908BF7047F020084710B504467B
:102F800090F89402012804BF022010BD012084F8AB
:102F900094026174206809F035FD002084F89402E1
:102FA00010BD0000F0B581B040F68C01C2F2000106
:102FB00009680546CC6905F527716768082207F19D
:102FC0006C000DF0B9FAA2680121796322F00E01BC
:102FD000A16097F96C200020B2F1FF3FB8647865DA
:102FE0001ADDA073384610F8722F12B997F87320C3
:102FF0006AB1BE6B0DF07AFBB0F5807F786411D9B1
:10300000204631460BF0D2F80020A168207341F42D
:103010000070A06001B0F0BD41F48070A06001B00C
:10302000F0BD00BF03460020FA6B317DB86428462E
:103030003A64FFF79BF80220207301B0F0BD000056
:1030400010B5044690F89402012804BF022010BD78
:103050002068012184F8941209F05EFC206808F0D1
:10306000D9FE002084F8940210BD000010B504467B
:1030700090F89402012804BF022010BD20680121AD
:1030800084F8941208F0E6FE206808F0CBFE0020D9
:1030900084F8940210BD000040F68C00C2F20000DB
:1030A0000068D0F8B011002908BF7047F420084725
:1030B00040F63800C4F20240016841F080710160BE
:1030C0007047000040F63800C4F20240016841F049
:1030D000007101607047000010B540F6284CC4F242
:1030E000024CDCF80CE0DCF80010DCF80020C2F345
:1030F0000523DCF80020DCF81040DBB3C4F3CC047B
:1031000002F0100204FB02F201F0030100EE102AAB
:103110000329B8EE400A6FF35F2E31D0022935D073
:1031200001295CF8281C49F20002C1F3C101C0F278
:10313000D03222FA01F101EE101A02EE103AB8EE86
:10314000411AB8EE422A9FED4F3A81EE021A02EE82
:1031500010EA20EE030AB8EE422A30EE020AB7EE79
:10316000002A30EE022A5CF8281C22EE010A8901AE
:103170002CD527E00021C0E90011816010BD00BFFF
:1031800001EE103A9FED3E2A04E000BF01EE103A36
:103190009FED3D2AB8EE411A82EE012A01EE10EAB7
:1031A0009FED383AB8EE411A20EE030A30EE010ADC
:1031B000B7EE001A30EE011A5CF8281C22EE010A64
:1031C000890103D5DCF80010C90307D40021016090
:1031D0005CF8281C890118D41BE000BFDCF80C1037
:1031E000B7EE002AC1F3462101EE101AB8EE411ADB
:1031F00031EE021A80EE011ABCEEC11A11EE101A5D
:1032000001605CF8281C890103D5DCF800108903F3
:1032100002D4002112E000BFDCF80C10B7EE002A47
:10322000C1F3064101EE101AB8EE411A31EE021A4E
:1032300080EE011ABCEEC11A11EE101A41605CF862
:10324000281C890144BFDCF800105FEA413103D437
:103250000021816010BD00BFDCF80C10B7EE002A21
:10326000C1F3066101EE101AB8EE411A31EE021AEE
:1032700080EE010ABCEEC00A10EE101A816010BD8B
:1032800020BCBE4B000000390024744A10B540F643
:103290002C4CC4F2024CDCF810E0DCF80010DCF836
:1032A0000020C2F30523DCF80020DCF81440DBB377
:1032B000C4F3CC0402F0100204FB02F201F003019B
:1032C00000EE102A0329B8EE400A6FF35F2E31D0CA
:1032D000022935D001295CF82C1C49F20002C1F307
:1032E000C101C0F2D03222FA01F101EE101A02EE51
:1032F000103AB8EE411AB8EE422A9FED4F3A81EEED
:10330000021A02EE10EA20EE030AB8EE422A30EE6C
:10331000020AB7EE002A30EE022A5CF82C1C22EEDC
:10332000010A09012CD527E00021C0E900118160C4
:1033300010BD00BF01EE103A9FED3E2A04E000BF31
:1033400001EE103A9FED3D2AB8EE411A82EE012AB5
:1033500001EE10EA9FED383AB8EE411A20EE030A6A
:1033600030EE010AB7EE001A30EE011A5CF82C1CA0
:1033700022EE010A090103D5DCF80010C90307D4C5
:10338000002101605CF82C1C090118D41BE000BF6F
:10339000DCF81010B7EE002AC1F3462101EE101A36
:1033A000B8EE411A31EE021A80EE011ABCEEC11AD3
:1033B00011EE101A01605CF82C1C090103D5DCF831
:1033C0000010890302D4002112E000BFDCF81010C5
:1033D000B7EE002AC1F3064101EE101AB8EE411A09
:1033E00031EE021A80EE011ABCEEC11A11EE101A6B
:1033F00041605CF82C1C090144BFDCF800105FEA56
:10340000413103D40021816010BD00BFDCF81010F1
:10341000B7EE002AC1F3066101EE101AB8EE411AA8
:1034200031EE021A80EE010ABCEEC00A10EE101A4C
:10343000816010BD20BCBE4B000000390024744ADE
:1034400010B540F6304CC4F2024CDCF814E0DCF865
:103450000010DCF80020C2F30523DCF80020DCF8C3
:103460001840DBB3C4F3CC0402F0100204FB02F2F8
:1034700001F0030100EE102A0329B8EE400A6FF3B1
:103480005F2E31D0022935D001295CF8301C49F279
:103490000002C1F3C101C0F2D03222FA01F101EE03
:1034A000101A02EE103AB8EE411AB8EE422A9FED19
:1034B0004F3A81EE021A02EE10EA20EE030AB8EE4D
:1034C000422A30EE020AB7EE002A30EE022A5CF8F9
:1034D000301C22EE010A89002CD527E00021C0E92A
:1034E0000011816010BD00BF01EE103A9FED3E2A31
:1034F00004E000BF01EE103A9FED3D2AB8EE411AFC
:1035000082EE012A01EE10EA9FED383AB8EE411A38
:1035100020EE030A30EE010AB7EE001A30EE011A6F
:103520005CF8301C22EE010A890003D5DCF800109B
:10353000C90307D4002101605CF8301C890018D44D
:103540001BE000BFDCF81410B7EE002AC1F34621DF
:1035500001EE101AB8EE411A31EE021A80EE011A8D
:10356000BCEEC11A11EE101A01605CF8301C890023
:1035700003D5DCF80010890302D4002112E000BF5B
:10358000DCF81410B7EE002AC1F3064101EE101A60
:10359000B8EE411A31EE021A80EE011ABCEEC11AE1
:1035A00011EE101A41605CF8301C890044BFDCF851
:1035B00000105FEA413103D40021816010BD00BFDB
:1035C000DCF81410B7EE002AC1F3066101EE101A00
:1035D000B8EE411A31EE021A80EE010ABCEEC00AC2
:1035E00010EE101A816010BD20BCBE4B00000039E7
:1035F0000024744A80B584B04FF6FF730246C0F2CF
:103600001F0300209B1A70EB010351DB40F2FF33D4
:103610009B1A70EB010380F2778047F6FF739B1AC9
:103620004FF0000C7CEB010380F214814FF6FF7326
:10363000C0F203039B1A7CEB0103C0F2078282F401
:1036400000430B4300F00C8482F480330B4300F002
:103650002D8482F40032114340F0DA8640F60040B7
:10366000C4F20240D0F8DC10C1F30221052900F2B7
:103670002387DFE811F02706C7062B06CF06D706FB
:10368000070000BFD0F8E8100368026811F040415D
:1036900003D113F0020340F07686B1F1804F40F081
:1036A000398712F4007240F06C8700F033BF00BF1E
:1036B000002940F399801F2940F30881FF2900F376
:1036C000018281F02003134300F00C8481F0400359
:1036D000134300F01B8481F08001114340F0988671
:1036E00040F60040C4F20240D0F8DC10C1F30261A1
:1036F000052900F2E186DFE811F0E5058506E90518
:103700008D069506A50600BFD2F17F034FF0000C91
:103710007CEB0103C0F25A81013A61F10001D2F160
:103720003F037CEB0101C0F07386DFE812F041003B
:1037300083027106AB02710671067106D902710629
:10374000710671067106710671067106090371062C
:1037500071067106710671067106710671067106B1
:1037600071067106710671067106710639037106DC
:103770007106710671067106710671067106710691
:103780007106710671067106710671067106710681
:103790007106710671067106710671067106710671
:1037A000710671067106710671067106690300BF24
:1037B00040F60040C4F20240D0F8D81011F00701E2
:1037C00000F008860268012903D112F0006240F07F
:1037D0006D860268022940F0CD8512F0005240F05B
:1037E000F38500F0C7BD00BF6FF078439B1A4FF020
:1037F000000C7CEB0103C0F29B804FF6FF73C0F21C
:103800007F039B1A7CEB010380F2908182F400031A
:103810000B4300F08F8382F000730B4300F094831E
:1038200082F08062114340F0F38540F60040C4F21C
:103830000240D0F8E810026811F0300140F0108624
:1038400012F4005200F00C8646F60040C0F2DC2074
:1038500004B080BD40F6FF739B1A7CEB010380F23D
:103860007B8182F480530B4300F0AA8382F40053DF
:103870000B4300F0C78382F48042114340F0C885B7
:1038800040F60040C4F20240D0F8E41001F44021B8
:10389000B1F5802F00F01A85002900F077850268C5
:1038A0000068B1F5002F03D112F0020240F08D86BE
:1038B00010F400701CBF40F60010C0F23D00B1F5DE
:1038C000402F18BF002004B080BD00BF032940F383
:1038D000798181F00403134300F0BA8381F0080377
:1038E000134300F0CB8381F01001114340F0908529
:1038F00040F60040C4F20240D0F8E41001F030017C
:10390000102900F0CD850268202903D112F0005261
:1039100040F05A85006810F400501CBF46F6004085
:10392000C0F2DC20302918BF002000F071BD00BFBC
:103930006FF060439B1A7CEB010380F25B8182F0A5
:1039400000530B4300F0AE8382F080430B4300F042
:10395000BF8382F00042114340F05A8540F6004098
:10396000C4F20240D0F8E01011F4E04100F0AA8463
:103970000268B1F5805F03D112F0006240F09685D5
:103980000268B1F5005F03D112F0005240F01C85CF
:1039900003680268B1F5405F03D113F0020340F001
:1039A0005B85B1F5804F03D112F4007240F0FF85C2
:1039B000006810F400301CBF47F64000C0F27D10D4
:1039C000B1F5A04F18BF002004B080BD82F0800385
:1039D0000B4300F0B58382F480730B4300F0E08367
:1039E00082F40072114340F0138540F60040C4F2A7
:1039F0000240D0F8D81011F0605100F0C78402687E
:103A0000B1F1006F03D112F0006240F04F850268FF
:103A1000B1F1805F03D112F0005240F0D584036809
:103A20000268B1F1C05F03D113F0020340F0AB8430
:103A3000B1F1005F03D112F4007240F0A285D0F81A
:103A4000F000B1F1205F00F0CEBD00BF82F4802312
:103A50000B4300F0D58382F400230B4300F0F8837E
:103A600082F48012114340F0D38440F60041C4F246
:103A70000241D1F8E800C0F3C242042A00F21C85DA
:103A800048F20000C0F2BB00DFE812F00A05BC04F7
:103A9000D604C204060000BFD1F8E8000B6810F09D
:103AA0004042086803D113F0020340F08E85B2F162
:103AB000804F40F0538510F4007040F0628500F0B4
:103AC0004DBD00BF81F48073134300F0EB8381F49C
:103AD0000073134300F0008481F48061114340F0CF
:103AE000978440F60040C4F20240D0F8E41001F49C
:103AF0004001B1F5800F00F0E983002900F0E28376
:103B000002680068B1F5000F03D112F0020240F024
:103B10005C8510F400701CBF40F60010C0F23D0040
:103B2000B1F5400F18BF002004B080BD82F400132F
:103B30000B4300F0EF8382F48002114340F068846D
:103B400040F60040C4F20240D0F8E400400600F124
:103B5000F58300F0A5BC00BF82F480630B4300F046
:103B6000F38382F40062114340F0528440F6004037
:103B7000C4F20240D0F8DC1011F0700100F00684AD
:103B80000268102903D112F0006240F08F840268AD
:103B9000202903D112F0005240F016840368026815
:103BA000302903D113F0020340F0ED83402903D103
:103BB00012F4007240F0E584D0F8F000502900F0D3
:103BC00012BD00BF81F00103134300F0E38381F0D5
:103BD0000201114340F01C8440F60040C4F2024050
:103BE000D0F8E41001F00301DFE811F0A4035A0457
:103BF000A8032C0482F000630B4300F0EF8382F0F3
:103C00008052114340F0048440F60041C4F2024166
:103C1000D1F8E000C0F3C202042A00F24D8448F259
:103C20000000C0F2BB00DFE812F03B04ED03070424
:103C3000F303610440F60040C4F20240D0F8D8100B
:103C400011F0380100F0A2830268082903D112F0B4
:103C5000006240F02B84102900F0B68303680268EC
:103C6000182903D113F0020340F08D83202903D1DA
:103C700012F4007240F08584D0F8F000282900F09A
:103C8000B2BC00BF40F60040C4F20240D0F8D810E9
:103C900011F4E07100F07A830268402903D112F038
:103CA000006240F003840268802903D112F00052C0
:103CB00040F08A8303680268C02903D113F002032D
:103CC00040F06183B1F5807F03D112F4007240F0BF
:103CD0005884D0F8F000B1F5A07F00F084BC00BF9C
:103CE00040F60040C4F20240D0F8D81011F46061F0
:103CF00000F04C830268B1F5007F03D112F000623E
:103D000040F0D4830268B1F5806F03D112F0005205
:103D100040F05A8303680268B1F5C06F03D113F015
:103D2000020340F03083B1F5006F03D112F400724A
:103D300040F02784D0F8F000B1F5206F00F053BCBC
:103D400040F60040C4F20240D0F8D81011F4E0412F
:103D500000F01C830268B1F5805F03D112F00062AD
:103D600040F0A4830268B1F5005F03D112F0005265
:103D700040F02A8303680268B1F5405F03D113F075
:103D8000020340F00083B1F5804F03D112F40072BA
:103D900040F0F783D0F8F000B1F5A04F00F023BC5D
:103DA00040F60040C4F20240D0F8D81011F460315F
:103DB00000F0EC820268B1F5004F03D112F000620E
:103DC00040F074830268B1F5803F03D112F00052D5
:103DD00040F0FA8203680268B1F5C03F03D113F0E6
:103DE000020340F0D082B1F5003F03D112F400721B
:103DF00040F0C783D0F8F000B1F5203F00F0F3BBEE
:103E000040F60040C4F20240D0F8D81011F4E0119E
:103E100000F0BC820268B1F5802F03D112F000627D
:103E200040F044830268B1F5002F03D112F0005234
:103E300040F0CA8203680268B1F5402F03D113F045
:103E4000020340F0A082B1F5801F03D112F400728A
:103E500040F09783D0F8F000B1F5A01F00F0C3BB8D
:103E600040F60040C4F20240D0F8E41001F44011E2
:103E7000B1F5801F00F02A82002900F02382026839
:103E80000068B1F5001F03D112F0020240F09D83DB
:103E900010F400701CBF40F60010C0F23D00B1F5F8
:103EA000401F18BF002004B080BD00BF40F6004195
:103EB000C4F20241D1F8E40000F04070B0F1807F1C
:103EC00000F00482002800F061820A68B0F1007FEF
:103ED0004FF0000040F09C8212F0020200F0988245
:103EE000086872E340F60040C4F20240D0F8DC10EB
:103EF000C1F30241052900F2DF82DFE811F0E3019E
:103F00008302E7018B029302A30200BF40F6004048
:103F1000C4F20240D0F8DC10C1F30251052900F2CE
:103F2000CB82DFE811F0CF016F02D30177027F026D
:103F30008F0200BF40F60040C4F20240D0F8E40017
:103F4000000640F1AD82F9E140F60041C4F20241C1
:103F5000D1F8F000D1F8F02000F44070B0F5807F87
:103F600006D112F002021EBF4FF4004004B080BD23
:103F7000D1F8F020B0F5007F06D112F000621EBF2C
:103F80004FF4FA4004B080BD0A68B0F5407F4FF0AE
:103F9000000040F03D8212F4003200F03982C8691E
:103FA00010F4785F00F08882C86947F64001C0F3DA
:103FB0000520C0F27D11B1FBF0F004B080BD00BF60
:103FC00040F60040C4F20240D0F8E01001F0E06199
:103FD000B1F1007F00F0F881B1F1807F00F06682DE
:103FE000002900F06F8103680268B1F1407F03D1BE
:103FF00013F0020340F0C781B1F1806F00F0F6804A
:10400000F8E000BF40F60040C4F20240D0F8E410EF
:1040100001F44031B1F5803F00F05881002900F0F3
:10402000B58102680068B1F5003F03D112F00202C9
:1040300040F0CB8210F400701CBF40F60010C0F2BC
:104040003D00B1F5403F18BF002004B080BD00BF67
:1040500040F60041C4F20241D1F8E800096810F4CA
:10406000407040F0178211F4003100F0138247F6DF
:104070004000C0F27D1004B080BD00BF40F600409B
:10408000C4F20240D0F8E810D0F8F02011F0C001DE
:1040900040F0168212F0020200F012824FF400404B
:1040A00004B080BD40F60041C4F20241D1F8E00006
:1040B000C0F38212042A00F2FF8148F20000C0F22D
:1040C000BB00DFE812F0ED019F01B901A501130269
:1040D00040F60040C4F20240D0F8E01011F46061F4
:1040E00000F078810268B1F5007F03D112F0006220
:1040F00040F0DC810268B1F5806F03D112F000520C
:1041000040F0628103680268B1F5C06F03D113F01B
:10411000020340F0A181B1F5006F03D112F40072E7
:1041200040F04582006810F400301CBF47F64000A4
:10413000C0F27D10B1F5206F18BF002004B080BD23
:1041400040F60040C4F20240D0F8D81011F46001EB
:1041500000F01C810268B1F5001F03D112F000626B
:1041600040F0A4810268B1F5800F03D112F0005233
:1041700040F02A8103680268B1F5C00F03D113F043
:10418000020340F00081B1F5000F03D112F4007278
:1041900040F0F781D0F8F000B1F5200F23E200BF26
:1041A00040F60040C4F20240D0F8D81011F0E061AF
:1041B00000F0EC800268B1F1807F03D112F0006260
:1041C00040F074810268B1F1007F03D112F0005217
:1041D00040F0FA8003680268B1F1407F03D113F028
:1041E000020340F0D080B1F1806F03D112F400726D
:1041F00040F0C781D0F8F000B1F1A06FF3E100BF4B
:1042000040F60040C4F20240D0F8DC10C1F30231A5
:10421000052900F25181DFE811F0B900F5005900DD
:10422000FD000501070000BFD0F8E8100368026830
:1042300011F0404103D113F0020340F0A480B1F12A
:10424000804F40F0678112F4007240F09A8161E182
:1042500040F60041C4F20241D1F8E800C0F3024246
:10426000042A00F2298148F20000C0F2BB00DFE816
:1042700012F01701C900E300CF000500D1F8E800F3
:104280000B6810F04042086803D113F0020340F0BD
:104290009C81B2F1804F40F0618110F4007040F0D9
:1042A00070815BE140F60040C4F20240D0F8DC10BF
:1042B000C1F30271052900F2FF80DFE801F003A3DA
:1042C00007ABB3C301F0DCFB04B080BD01A8FFF76E
:1042D000B7F8039804B080BD40F60040C4F2024035
:1042E000D0F8E810D0F8F02011F0080106D112F053
:1042F00002021EBF4FF4004004B080BDD0F8F000B1
:1043000010F0006018BF4FF4FA40002908BF0846BB
:1043100004B080BD40F60040C4F20240D0F8E8107E
:1043200001F00701022909D0012900F001810029CB
:1043300040F0028101F044FB04B080BD01A8FEF70B
:10434000A5FF039804B080BD40F60040C4F20240CF
:10435000D0F8DC1011F0070118D00268012903D150
:1043600012F0006240F0A2800268022902D112F02D
:10437000005229D103680268032940F0FD8013F040
:10438000020300F0F980C2F3C10020E101F030FB2C
:1043900004B080BD40F60040C4F20240D0F8E01006
:1043A00011F4603116D00268B1F5004F03D112F05C
:1043B000006240F07B800268B1F5803F40F0E88009
:1043C00012F0005200F0E48001A8FFF739F80298DB
:1043D00004B080BD01F030FB04B080BD40F6004168
:1043E000C4F20241D1F8E00000F00702042A63D8C9
:1043F00048F20000C0F2BB00DFE802F052041E0ADF
:10440000780000BF01A8FEF741FF019804B080BD0D
:1044100004B080BDD0F8F0004FF4004101EA8030D4
:1044200004B080BDD0F8F0004FF4FA41000101EA79
:10443000E07004B080BD00BF01A8FFF701F801984B
:1044400004B080BDD0F8E8100368026811F0404164
:104450005AD113F0020357D0C2F3C100B7E000BF36
:104460000268102902D112F0007219D1D0F8F020A0
:10447000202903D112F002027FF410AED0F8F00030
:1044800010F0006018BF4FF4FA40302918BF002028
:1044900004B080BDB0F5007F08D0B0F5807F0BD1AF
:1044A00001A8FEF719FE029804B080BD01A8FEF72E
:1044B000EDFE029804B080BD002004B080BD00BFB6
:1044C000D0F8F020402906D112F000621EBF4FF450
:1044D000FA4004B080BD006810F4007018BF48F2C4
:1044E0001200802918BF002004B080BDD1F8E80078
:1044F0000B6810F0404208682AD113F0020327D05D
:10450000C0F3C10063E000BFB1F1804F02D112F4EB
:1045100000724CD1006810F400301CBF47F6400018
:10452000C0F27D10B1F1004F18BF002004B080BD73
:1045300001F0CAFA04B080BD026803293ED112F42A
:1045400000323BD047F64000C0F27D1004B080BD81
:10455000B2F1804F02D110F4007028D1086810F435
:1045600000301CBF47F64000C0F27D10B2F1004F92
:1045700018BF002004B080BD042931D112F40072AC
:104580002ED040F60010C0F23D0004B080BD00BF48
:1045900003680268B1F5C03F03D113F002037FF452
:1045A0005BAFB1F5003F33D112F4007230D040F66A
:1045B0000010C0F23D0004B080BD00BF026800687A
:1045C000042919D112F0020216D0C0F3C10049F239
:1045D0000001C0F2D03121FA00F004B080BD00BF6C
:1045E000D0F8F000052900F002024FF0000008BFEB
:1045F000900304B080BD00BF10F400701CBF40F6F3
:104600000010C0F23D00052918BF002004B080BD95
:10461000006810F400301CBF47F64000C0F27D1067
:10462000B1F5203F18BF002004B080BD2DE9F04750
:104630000446006840F62848C101C4F2024807D584
:10464000D8F8C010A26D21F040411143C8F8C01045
:10465000C0070ED0E06D052822D8DFE800F0032364
:104660002B030303D8F8B01021F007010843C8F862
:10467000B00000262078800702D4354645E000BF10
:10468000206E4FEAF00005281ED83546DFE800F01E
:1046900004222804040400BF2F4645BB2CE000BFC1
:1046A0000126E7E704F1080005F0B4FB0646002800
:1046B000E0D106E004F1300005F024FC06460028B5
:1046C000D8D1E06DCEE700BF012501272078400753
:1046D0001FD44EE004F1080005F09CFB04E000BF8D
:1046E00004F1300005F00EFC05462F4625B1207878
:1046F00040070ED43DE000BFD8F8B000216E20F096
:10470000380008430025C8F8B00037462078400735
:104710002FD5606E4FEAB010052809D8DFE800F009
:10472000040E1404040400BF2E46A5B918E000BF0F
:1047300001260125207800071FD44EE004F108006F
:1047400005F068FB04E000BF04F1300005F0DAFB7F
:1047500005462E4625B1207800070ED43DE000BF67
:10476000D8F8B000616E20F4E07008430025C8F866
:10477000B0003E46207800072FD5A06E4FEA70208B
:10478000052809D8DFE800F0040E1404040400BF73
:104790002F46A5B918E000BF012701252078C006E3
:1047A0001FD44EE004F1080005F034FB04E000BF24
:1047B00004F1300005F0A6FB05462F4625B1207810
:1047C000C0060ED43DE000BFD8F8B000A16E20F4C2
:1047D000606008430025C8F8B00037462078C0065E
:1047E0002FD5E06E4FEA3030052809D8DFE800F019
:1047F000040E1404040400BF2E46A5B918E000BF3F
:1048000001260125207880061FD44EE004F108001F
:1048100005F000FB04E000BF04F1300005F072FB7E
:1048200005462E4625B1207880060ED43DE000BF17
:10483000D8F8B000E16E20F4E04008430025C8F845
:10484000B0003E46207880062FD5206F4FEAF0302A
:10485000052809D8DFE800F0040E1404040400BFA2
:104860002F46A5B918E000BF012701252078400692
:104870001FD44EE004F1080005F0CCFA04E000BFBC
:1048800004F1300005F03EFB05462F4625B12078A7
:1048900040060ED43DE000BFD8F8B000216F20F4F0
:1048A000603008430025C8F8B0003746207840063D
:1048B0002FD5606F4FEAB040052809D8DFE800F037
:1048C000040E1404040400BF2E46A5B918E000BF6E
:1048D00001260125207800061FD44EE004F10800CF
:1048E00005F098FA04E000BF04F1300005F00AFB7F
:1048F00005462E4625B1207800060ED43DE000BFC7
:10490000D8F8B000616F20F4E01008430025C8F823
:10491000B0003E46207800062FD5A06F4FEA7050B9
:10492000052809D8DFE800F0040E1404040400BFD1
:104930002F46A5B918E000BF012701256078C00700
:104940001FD14EE004F1080005F064FA04E000BF56
:1049500004F1300005F0D6FA05462F4625B16078FF
:10496000C0070ED13DE000BFD8F8B000A16F20F421
:10497000600008430025C8F8B00037466078C007DB
:104980002FD0E06F4FEA3060052809D8DFE800F04B
:10499000040E1404040400BF2E46A5B918E000BF9D
:1049A00001260125607880071FD44FE004F108003C
:1049B00005F030FA04E000BF04F1300005F0A2FA7F
:1049C00005462E4625B1607880070ED43EE000BF34
:1049D000D8F8B000E16F20F0E06008430025C8F887
:1049E000B0003E466078800730D5D4F880004FEAAA
:1049F000F060052808D8DFE800F0030D1303030377
:104A00002F46A5B918E000BF0127012560784007AF
:104A100020D44FE004F1080005F0FCF904E000BFE9
:104A200004F1300005F06EFA05462F4625B1607896
:104A300040070FD43EE000BFD8F8B000D4F8801093
:104A400020F0605008430025C8F8B0003746607871
:104A500040072FD5D4F88400052809D8DFE800F0F6
:104A6000040E1404040400BF2E46A5B918E000BFCC
:104A7000012601256078000720D451E004F10800E8
:104A800005F0C8F904E000BF04F1300005F03AFA7F
:104A900005462E4625B1607800070FD440E000BFE0
:104AA000D8F8B400D4F8841020F00700084300259B
:104AB000C8F8B4003E466078000731D5D4F88800C5
:104AC0004FEA3010052809D8DFE800F0040E14047E
:104AD000040400BF2F46A5B918E000BF0127012537
:104AE0006078C00620D451E004F1080005F092F986
:104AF00004E000BF04F1300005F004FA05462F463B
:104B000025B16078C0060FD440E000BFD8F8B400EB
:104B1000D4F8881020F0700008430025C8F8B400CD
:104B200037466078C00631D5D4F88C004FEA306043
:104B3000052809D8DFE800F0040E1404040400BFBF
:104B40002E46A5B918E000BF012601256078800631
:104B500020D43DE004F1080005F05CF904E000BF5A
:104B600004F1300005F0CEF905462E4625B16078F7
:104B700080060FD42CE000BFD8F8B800D4F88C1011
:104B800020F0E06008430025C8F8B8003E46607891
:104B900080061DD5D4F890006FF0010101EB304183
:104BA000022909D34FEA304030B1012834D104F151
:104BB000300005F0A7F905462F4655B9D8F8BC00D6
:104BC000D4F8901020F4403008430025C8F8BC0009
:104BD00037466078400624D5D4F894006FF0010180
:104BE00001EBB041022909D34FEAB04030B10128AE
:104BF0003AD104F1300005F085F905462E468DB90D
:104C0000D8F8BC00D4F8941020F4402008430025C4
:104C1000C8F8BC0005E000BF012701256078400608
:104C2000DAD43E466078000623D5D4F898006FF0B9
:104C3000010101EB3051022909D34FEA305030B164
:104C4000012839D104F1300005F05CF90546A94688
:104C500085B9D8F8BC00D4F8981020F44010084367
:104C60000025C8F8BC0004E0012601256078000694
:104C7000DBD4B1466079400724D5D4F89C006FF0AE
:104C8000010101EBB051022909D34FEAB05030B114
:104C900001283BD104F1300005F034F905462F46D8
:104CA0008DB9D8F8BC00D4F89C1020F4400008431B
:104CB0000025C8F8BC0005E04FF001090125607926
:104CC0004007DAD44F46A078C00724D0D4F8A0001B
:104CD000002818BFB0F1007F0CD12E46E5B9D8F8F6
:104CE000BC00D4F8A01020F0407008430025C8F89C
:104CF000BC0010E0B0F1807F34D104F1300005F049
:104D000001F905462E463DB9E9E700BF0127012517
:104D1000A078C007DAD13E46D4E9000140F61C492C
:104D2000C4F2024909050CD5D9F8001021F400415C
:104D3000C9F80010D4F80411D9F800201143C9F8BB
:104D40000010800334D5D4F8A4004FEA30200528A1
:104D50000CD8DFE800F00311170303032F46C5B991
:104D60001CE000BF01260125D6E700BF0127012571
:104D7000A078400720D451E004F1080005F04AF87B
:104D800004E000BF04F1300005F0BCF805462F46F2
:104D900025B1A07840070FD440E000BFD8F8B40098
:104DA000D4F8A41020F4E06008430025C8F8B4004B
:104DB0003746A078400731D5D4F8A8004FEA303004
:104DC000052809D8DFE800F0040E1404040400BF2D
:104DD0002E46A5B918E000BF0126012520798006DE
:104DE00020D451E004F1080005F014F804E000BFFD
:104DF00004F1300005F086F805462E4625B12079ED
:104E000080060FD440E000BFD8F8B400D4F8A81052
:104E100020F4E04008430025C8F8B4003E4620795D
:104E2000800631D5D4F8AC004FEA3040052809D8C7
:104E3000DFE800F0040E1404040400BF2F46A5B9F7
:104E400018E000BF012701252079400620D451E059
:104E500004F1080004F0DEFF04E000BF04F13000BC
:104E600005F050F805462F4625B1207940060FD4AD
:104E700040E000BFD8F8B400D4F8AC1020F4E02033
:104E800008430025C8F8B40037462079400631D5DC
:104E9000D4F8B0004FEA3050052809D8DFE800F018
:104EA000040E1404040400BF2E46A5B918E000BF88
:104EB000012601252079000620D451E004F10800E4
:104EC00004F0A8FF04E000BF04F1300005F01AF878
:104ED00005462E4625B1207900060FD440E000BFDC
:104EE000D8F8B400D4F8B01020F4E000084300254E
:104EF000C8F8B4003E462079000631D5D4F8B40095
:104F00004FEA3060052809D8DFE800F0040E1404E9
:104F1000040400BF2F46A5B918E000BF01270125F2
:104F20006079C00720D151E004F1080004F072FF5D
:104F300004E000BF04F1300004F0E4FF05462F4612
:104F400025B16079C0070FD140E000BFD8F8B400A8
:104F5000D4F8B41020F0E06008430025C8F8B4008D
:104F600037466079C00731D0D4F8B8004FEA3070C6
:104F7000052809D8DFE800F0040E1404040400BF7B
:104F80002E46A5B918E000BF01260125A07800072C
:104F900020D457E004F1080004F03CFF04E000BF17
:104FA00004F1300004F0AEFF05462E4625B1A0788E
:104FB00000070FD446E000BFD8F8B400D4F8B8100A
:104FC00020F0E04008430025C8F8B4003E46A07831
:104FD000000737D5D4F8C0004FEA304004280FD876
:104FE000DFE800F004141A0A0A0000BFD8F8000035
:104FF00040F40030C8F800002F46A5B918E000BF03
:1050000001270125A078C00620D457E004F108004C
:1050100004F000FF04E000BF04F1300004F072FF70
:1050200005462F4625B1A078C0060FD446E000BF44
:10503000D8F8C000D4F8C01020F4E02008430025C0
:10504000C8F8C0003746A078C00637D5D4F8C400E9
:105050004FEAF04004280FD8DFE800F004141A0AE1
:105060000A0000BFD8F8000040F40030C8F8000083
:105070002E46A5B918E000BF01260125A0788006BC
:1050800020D447E004F1080004F0C4FE04E000BFAF
:1050900004F1300004F036FF05462E4625B1A07815
:1050A00080060FD436E000BFD8F8C000D4F8C41092
:1050B00020F4601008430025C8F8C0003E46A078E0
:1050C000800627D5D4F8D400052809D802280FD0A7
:1050D0002846ADB1D4E90012920520D42FE000BFDC
:1050E00001200125D4E90012920518D427E000BF61
:1050F00004F1080004F08EFE0546002D2846E9D193
:10510000D8F8C000D4F8D41020F0070008430025D8
:10511000C8F8C0003046D4E9001292050FD5D4F883
:10512000D82042F00803082B0ED1AA4645B9D8F87A
:10513000C030002523F008031A43C8F8C020824677
:10514000880106D4504621E04FF0010A012588016C
:10515000F8D54FF60847CFF6FF7759F8070040F02B
:10516000010049F80700FCF73DFD064659F8070025
:10517000C00707D1FCF736FD801B0228F6D90320B3
:10518000032503E0002D284600F0928021684A01A3
:105190001CD5D4F8C8206FF0010303EB3213022BA7
:1051A0000AD34FEA32133BB1012B39D1D8F8003082
:1051B00043F40033C8F800302F4645B9D8F8C03062
:1051C000002523F030031A43C8F8C02007464802E0
:1051D0002AD5D4F8CC0040280AD0D8B9D8F8000095
:1051E00040F40030C8F800002E46ADB907E000BF1B
:1051F00004F1080004F00EFE05462E4665B9D8F805
:10520000BC00D4F8CC1020F0400008430025C8F8BA
:10521000BC0009E001260125A078000608D428E09A
:10522000012701254802D4D43E46A078000620D5A7
:10523000D4F8D00080280BD0002833D1D8F8000053
:1052400040F40030C8F800002F469DB907E000BFC9
:1052500004F1080004F0DEFD05462F4655B9D8F8E4
:10526000BC00D4F8D01020F0800008430025C8F816
:10527000BC003746E078000740F17E80D4F8E000BB
:10528000042857D8DFE800F0045C620A0A0000BF77
:10529000D8F8000040F40030C8F80000002D2E4679
:1052A0005BD15FE001270125E0780007E6D463E0E9
:1052B000D8F8C80010F4407018D0D4F8F81088421C
:1052C00011D0D8F8C800D8F8C81020F4407041F4C4
:1052D0008031C8F8C810D8F8C81021F48031C8F857
:1052E000C810C8F8C800C00740F0FC81D4F8F80026
:1052F000D9F800104FF6CF7300F4407221F47C51BE
:10530000C0F2FF0303EA1013B2F5407F08BF194350
:10531000C9F80010D8F8C8106FF31F3021F440719D
:10532000C8F8C810D8F8C81000250843C8F8C80045
:1053300008E700BF01260125E078C00620D457E029
:1053400004F1080004F066FD04E000BF04F1300041
:1053500004F0D8FD05462E4625B1E078C0060FD4EE
:1053600046E000BFD8F8B800D4F8E01020F00700FD
:1053700008430025C8F8B8003E46E078C00637D597
:10538000D4F8E4004FEAF00004280FD8DFE800F07A
:1053900004141A0A0A0000BFD8F8000040F40030D4
:1053A000C8F800002F46A5B918E000BF0127012565
:1053B000E078800620D457E004F1080004F02AFDCC
:1053C00004E000BF04F1300004F09CFD05462F46C8
:1053D00025B1E07880060FD446E000BFD8F8B800C9
:1053E000D4F8E41020F0380008430025C8F8B800CD
:1053F0003746E078800637D5D4F8E8004FEAB01099
:1054000004280FD8DFE800F004141A0A0A0000BFCD
:10541000D8F8000040F40030C8F800002E46A5B9C6
:1054200018E000BF01260125E078400620D44AE0BC
:1054300004F1080004F0EEFC04E000BF04F13000C9
:1054400004F060FD05462E4625B1E07840060FD4F5
:1054500039E000BFD8F8B800D4F8E81020F4E070C4
:1054600008430025C8F8B8003E46E07840062AD533
:10547000D4F8EC004FEA7020052809D8DFE800F0E6
:10548000040C1204040400BF2F46EDB911E000BF64
:105490000127012518E000BF04F1080004F0BAFC60
:1054A00004E000BF04F1300004F02CFD05462F4657
:1054B00055B9D8F8B800D4F8EC1020F4606008436F
:1054C0000025C8F8B80037462068B0F1FF3F05DD79
:1054D0003E462079C00718D148E000BFD4F8F0005C
:1054E0004FEA3030052800F2DB80DFE810F00700DB
:1054F000E100E70007000700070000BF002D2E466F
:1055000000F0E5802079C00730D0D4F8F4004FEAED
:10551000F030052808D8DFE800F0030D130303037B
:105520002F46A5B918E000BF012701252079800783
:1055300020D43BE004F1080004F06CFC04E000BF60
:1055400004F1300004F0DEFC05462F4625B1207939
:1055500080070FD42AE000BFD8F8B800D4F8F410C0
:1055600020F4603008430025C8F8B8003746207999
:1055700080071BD5D4F8DC00032800F28380DFE825
:1055800000F00903850900BFD8F8000040F400309E
:10559000C8F800002E4655B9D8F8BC00D4F8DC1085
:1055A00020F0030008430025C8F8BC003E462079DF
:1055B000400722D5D4F8BC0058B1B0F5007F0BD01D
:1055C000B0F5807F32D1D8F8000040F40030C8F840
:1055D00000002F4695B906E004F1080004F01AFC1B
:1055E00005462F4655B9D8F8C000D4F8BC1020F4B1
:1055F000407008430025C8F8C00037462079C0062F
:105600002AD5D4F80001302809D0202814D0102839
:1056100032D1D8F8000040F40030C8F8000095B14D
:10562000207900071CD42846BDE8F0870127012512
:105630002079C006E5D40FE004F1300004F062FCEC
:105640000546002DECD1D8F8BC00D4F8001120F0AC
:1056500030000843C8F8BC003D4620790007E2D579
:10566000D8F8C000D4F8FC1020F0C0000843C8F8F7
:10567000C0002846BDE8F087012520790007D2D573
:10568000EEE700BF0126012591E700BF04F1080005
:1056900004F0C0FB0546002D2E467FF488AF7BE763
:1056A000012601252079C0077FF42FAF5EE700BFF8
:1056B00004F1080004F0AEFB04E000BF04F1300088
:1056C00004F020FC0546002D2E467FF41BAFD8F8D1
:1056D000B800D4F8F01020F4E04008430025C8F8E2
:1056E000B800F5E6FCF77EFA064641F28837032556
:1056F000D8F8C80080073FF5F9ADFCF773FA801BB6
:10570000B8424FF00300F3D940E500002DE9F04323
:1057100081B0002800F0CD8042F20008C4F20208F7
:105720000446D8F800000D4600F00F0088420DD264
:10573000D8F8000020F00F002843C8F80000D8F87F
:10574000000000F00F00A84240F0B380206840F64F
:105750002047C106C4F202470CD561693A6870233C
:1057600003EA1222914205D93A6822F4E04242EA61
:105770000121396001070CD521693A68702303EAD9
:105780001212914205D93A6822F4E06242EA01110C
:10579000396041070AD5E1683A6802F07002914227
:1057A00004D93A6822F070021143396081070AD5A2
:1057B000A1683A6802F00F02914204D93A6822F0D7
:1057C0000F0211433960C00768D1206881070AD5EC
:1057D000A1683A6802F00F02914204D23A6822F0BE
:1057E0000F0211433960D8F8001001F00F01A942EF
:1057F0000CD9D8F8001021F00F012943C8F8001087
:10580000D8F8001001F00F01A94252D141070AD582
:10581000E1683A6802F07002914204D23A6822F0DC
:1058200070021143396001070CD521693A68702371
:1058300003EA1212914205D23A6822F4E06242EA87
:1058400001113960C0060CD560693968702202EA1E
:105850001121884205D2396821F4E04141EA002053
:10586000386000F031F9396842F6A87201F00F0192
:10587000C0F60702525C40F20401C2F2000109685E
:1058800040F2600320FA02F2C2F2000308461A60F6
:1058900001B0BDE8F043FCF7F9B900BF606801282A
:1058A0000CD002285ED0032862D157F8201C890151
:1058B00008D4012001B0BDE8F08300BF57F8201CD8
:1058C0008905F6D557F8041C21F00301084347F871
:1058D000040CFCF787F961680646032941F2883910
:1058E0002BD0022937D0012910D100BF57F8040C62
:1058F00000F0180008283FF468AFFCF773F9801B2C
:1059000048454FF00300F1D90DE000BF57F8040CF3
:1059100010F0180F3FF459AFFCF764F9801B4845AD
:105920004FF00300F2D901B0BDE8F083FCF75AF95B
:10593000801B48454FF00300F5D857F8040C00F0E1
:1059400018001828F2D140E7FCF74CF9801B4845B5
:105950004FF00300E7D857F8040C00F018001028A7
:10596000F2D132E757F8201C8903A2D5AAE700BF7D
:1059700057F8201C89079CD5A4E700001F2202606D
:1059800040F61C42C4F2024213684FF0700C03F060
:1059900003034360526802F00F03836002F0700358
:1059A000C3600CEA12130CEA1222C0E9043242F27C
:1059B0000000C4F20200006800F00F0008607047A9
:1059C00080B500F081F840F62041C4F20241096838
:1059D00042F6A87201F00F01C0F60702515C01F017
:1059E0001F01C84040F26001C2F20001086080BDA2
:1059F00080B500F069F840F62041C4F202410A681F
:105A000042F6A87302F00F02C0F607039A5C02F098
:105A10001F02D04040F26002C2F20002106009682A
:105A200042F6B872C1F30211C0F60702515C01F0F0
:105A30001F01C84080BD000080B500F045F840F669
:105A40002041C4F202410A6842F6A87302F00F0234
:105A5000C0F607039A5C02F01F02D04040F26002D9
:105A6000C2F200021060096842F6B872C1F3022166
:105A7000C0F60702515C01F01F01C84080BD000064
:105A800080B500F021F840F62041C4F202410A68D6
:105A900042F6A87302F00F02C0F607039A5C02F008
:105AA0001F02D04040F26002C2F20002106009689A
:105AB00042F6B872C1F30231C0F60702515C01F040
:105AC0001F01C84080BD000080B540F60041C4F20F
:105AD0000241C86900F01800082802BF40F6001013
